:100000000C94F6020C9413030C9413030C94130336
:100010000C9413030C9413030C9413030C94130308
:100020000C9413030C9423090C9413030C941303E2
:100030000C9413030C9413030C9413030C941303E8
:100040000C94180D0C94F70D0C9413030C941303DB
:100050000C9413030C9413030C9413030C941303C8
:100060000C9413030C941303FC0FFE1FFF3F07387F
:100070000738073807380738073807380738073888
:1000800002100210021007380738073807380738FF
:100090000738073807380738FF3FFE1FFC0F0010EE
:1000A0000038003800380038003800380038003890
:1000B00000380038003800100010001000380038F8
:1000C0000038003800380038003800380038003870
:1000D00000380010FE0FFF1FFE3F003800380038C8
:1000E000003800380038003800380038FC3FFE1F68
:1000F000FF0F0700070007000700070007000700C1
:1001000007000700FF1FFE3FFC1FFE0FFF1FFE3F03
:10011000003800380038003800380038003800381F
:100120000038FE1FFF1FFE1F00380038003800385F
:1001300000380038003800380038FE3FFF1FFE0F3F
:1001400002100738073807380738073807380738E4
:100150000738073807380738FF1FFE1FFC1F003815
:1001600000380038003800380038003800380038CF
:10017000003800380010FC1FFE3FFF1F070007007B
:100180000700070007000700070007000700FF0F30
:10019000FE1FFC3F003800380038003800380038B7
:1001A000003800380038FE3FFF1FFE0FFC1FFE3FE7
:1001B000FF1F0700070007000700070007000700F0
:1001C00007000700FE0FFE1FFE3F073807380738FD
:1001D000073807380738073807380738FF3FFE1F4A
:1001E000FC0FFE0FFF1FFE3F0038003800380038BC
:1001F00000380038003800380038001000100010B7
:10020000003800380038003800380038003800382E
:100210000038003800380010FC0FFE1FFF3F073881
:1002200007380738073807380738073807380738D6
:10023000FE1FFE1FFE1F073807380738073807382C
:100240000738073807380738FF3FFE1FFC0FFC0F41
:10025000FE1FFF3F073807380738073807380738C9
:10026000073807380738FF1FFE1FFC1F003800380B
:100270000038003800380038003800380038FE3FB9
:10028000FF1FFE0FFC0FFE1FFF3F07380710070080
:10029000070007000700070007000700070003002A
:1002A0000700070007000700070007000700070016
:1002B00007100738FF3FFE1FFC0F1C3E7663636389
:1002C00063636363373E1C0E0F0C0C0C0C0C0C0CA0
:1002D0000C0C3F3F1E7F6160603030180C06027FBF
:1002E0007F1E3F3130381E1E383030391F0E60708F
:1002F00078786C6C6663FFFF6060603F3F030303C8
:100300001F1F383030391F0E1C3E0E07073F7F6716
:100310006767673E1C7F7F6030303038181C1C0CCC
:100320000E0E3C7E6363633E1E366363637E1C7CFD
:1003300000FE00E700C301C301E701FE01DC01C0CC
:1003400001C001E2007E003C0070007000D800D8BF
:1003500000D800CC008C018C01FE01FE01060303D5
:100360000303033F3F0303031F3F736363733F1F95
:100370003F7F6363631F3F636363633F1F3F3F03CD
:1003800003030303030303030303F801F8019801C4
:10039000980198019C018C018C018C0186018601D9
:1003A000FF03FF030303030303033F3F0303033F71
:1003B0003F030303033F3FC318C618C60CCC0CDC35
:1003C0000EF807F807DC0ECC0CCE1CC618C738C3D5
:1003D000301E3F3130301E1E383030391F0EC30101
:1003E000C301E301E301B301B3019B019B019F0141
:1003F0008F018F0187018701840078000000C3010D
:10040000C301E301E301B301B3019B019B019F0120
:100410008F018F0187010000C301E300E300730037
:1004200033001B001F003B007300E300E300C30127
:100430008303F801F801980198019C019C018C014B
:100440008C018C018C018E018F0187010F0F0F0F22
:100450000F0F0F0F9F0D9F0D9B0D9B0DDB0CF30CD2
:10046000F30C730C630CC3C3C3C3C3FFFFC3C3C389
:10047000C3C3C37800FE00C60083018301830183E8
:1004800001830183018301C600FE007C00FFFFC3DE
:10049000C3C3C3C3C3C3C3C3C3C31F3F73636373B4
:1004A0003F1F030303030378FC8E070303030303C7
:1004B000078EFC78FFFF1818181818181818181845
:1004C00018C701C701CE00EE00EC007C00780038B0
:1004D000003000300018001F000F003000FC00FE4C
:1004E00001B6033303330333033303B703FE01FCC5
:1004F00000300030008701CF01CE00FE007C007C80
:100500000038007C007C00E600E600C301C301C3A4
:1005100000C300C300C300C300C300C300C300C3C3
:1005200000C300C300FF01FF01800180018001635F
:100530006363636363737F6E60606060630663061A
:100540006306630663066306630663066306630663
:100550006306FF07FF07630C630C630C630C630CFB
:10056000630C630C630C630C630C630CFF1FFF1FB5
:100570000018001800181F001F00180018001800AD
:10058000F800F8019803180318039803F801F8001D
:10059000030603060306030603061F063F0673064B
:1005A0006306630673063F061F0603030303031F68
:1005B0003F736363733F1F1E3F71E0E0FEFEE0E0A8
:1005C000E0713F1FC307E30F630C731833183F1824
:1005D0003F18331833183318630CE30FC307FCFEBE
:1005E000C7C3C3C6FCFCCECEC6C7C70011241FBEFE
:1005F000CFEFD8E0DEBFCDBF13E0A0E0B1E0ECE08C
:10060000FFE102C005900D92A039B107D9F713E0C0
:10061000A0E9B3E001C01D92AA3BB107E1F70E9437
:1006200019040C94840F0C9400001F93882309F57F
:1006300080E091E00E94C10E81E0809332010E942F
:10064000C10980E091E0E5E8F1E0DF019C011D9245
:1006500021503040E1F70E945809182F0E94550997
:10066000682F812F409132010E9473070E94000A77
:1006700013C0809191038C3310F080E00EC065E0D0
:100680000E94190F992341F4809132018F5F80936A
:10069000320181700E94440781E01F9108951F93E9
:1006A0008823D1F481E191E00E94C10E80E091E0C5
:1006B000E5E8F1E0DF019C011D9221503040E1F7B7
:1006C0000E947E0A182F0E94840A682F812F0E94A0
:1006D000FB060E94AC0A05C090E080919103853131
:1006E00008F491E0892F1F91089582E993E00E9418
:1006F0006C0D882311F490E059C080ED97E020E95B
:1007000031E0F9013197F1F70197D9F78091920320
:10071000803311F480EF40C0823211F480EE3CC08F
:10072000873369F480E091E0E5E8F1E0DF019C01C6
:100730001D9221503040E1F70E9426062CC08633DE
:1007400069F480E091E0E5E8F1E0DF019C011D92B1
:1007500021503040E1F70E9440061DC0843369F407
:1007600080E091E0E5E8F1E0DF019C011D9221507D
:100770003040E1F70E9453060EC0823381F480E0DE
:1007800091E0E5E8F1E0DF019C011D92215030404D
:10079000E1F70E945D0681EF8093930306C08C30E1
:1007A00021F4109293031092910391E080919303AE
:1007B000803E29F1813E28F4882341F08130B1F553
:1007C0000EC0803F31F1813F89F5089580919103FA
:1007D0008F5F8093910381500E94150308C0809120
:1007E00091038F5F8093910381500E944F03882370
:1007F000F9F4809193038F5F8093930314C099233E
:10080000B9F08091920390E00E94BC07892B81F49B
:1008100008C0992369F0809192030E9424088823DC
:1008200039F4109293031092910308951092930358
:100830000895CF93DF93A89584B7877F84BF809175
:1008400060008861809360001092600088E893E106
:1008500020E931E0F9013197F1F70197D9F70E94CA
:10086000B00E0E94E5080E9415060E94740A0E94BC
:10087000AC0A0E94AC0A0E94620DA8952BE088E1A8
:1008800090E00FB6F894A895809360000FBE209377
:10089000600078948FE191E00E94C10E28EE33E071
:1008A000C0E9D1E005C0CE010197F1F721503040F9
:1008B00021153105C1F70E94750328EE33E0F3CF0F
:1008C0009C0180917D0190917E018217930708F42D
:1008D0004BC080917F01909180018617970708F4A3
:1008E00043C0F90183E0F695E7958A95E1F7CB01DE
:1008F0008F709070B4E076956795BA95E1F7A3E0B4
:10090000660F771FAA95E1F727703070452BB1F07D
:10091000E60FF71F44E0EE0FFF1F4A95E1F7E3589B
:10092000FE4FE80FF91F81E090E002C0880F991F89
:100930002A95E2F72085282B20870895E60FF71FD8
:1009400034E0EE0FFF1F3A95E1F7E358FE4FE80F52
:10095000F91F81E090E002C0880F991F2A95E2F705
:10096000809520858223808708955F926F927F9281
:100970008F929F92AF92BF92CF92DF92EF92FF92AF
:100980000F931F93CF93DF936C017B013A014901D1
:10099000502E5901A61AB70A8A01081B190BAA0C76
:1009A000BB1C000F111F452D50E00E946004A016D3
:1009B000B106E8F4C80196958795E501C81BD90BE7
:1009C00012C0D7FD05C00894E11CF11CC01BD10B5F
:1009D0000894C11CD11CCA0DDB1DC601B701452DF1
:1009E00050E00E946004C614D70459F71CC0C5012A
:1009F00096958795E801C81BD90B12C0D7FD05C095
:100A00000894C11CD11CCA19DB090894E11CF11C13
:100A1000C00FD11FC601B701452D50E00E946004F0
:100A2000E814F90459F7DF91CF911F910F91FF90CE
:100A3000EF90DF90CF90BF90AF909F908F907F907E
:100A40006F905F9008954F925F926F927F928F9216
:100A50009F92AF92BF92CF92DF92EF92FF920F934D
:100A60001F93CF93DF933B015A0199E0899F700157
:100A700011248BE691E0E80EF91E30E0C901C09721
:100A80006C01CC0CDD1CC80ED91ED7011596ED915A
:100A9000FC9116978F010C0D1D1DD8018C9190E0D3
:100AA000019768E070E00E94250F6F5FD7016C939B
:100AB0002F523040C901880F991F820F931FE80FF2
:100AC000F91F8181F8019181891B11968C9300E0B7
:100AD00010E0C0E0D0E061E0462E512C38C0D701D4
:100AE0001596ED91FC911697EC0DFD1D818192817B
:100AF000800F911F1796ED91FC911897E80FF91F41
:100B000085909490C0E0D0E010C0A2010C2E02C0ED
:100B1000440F551F0A94E2F748215921CE01860D52
:100B2000971DB5010E9460042196D7011596ED919D
:100B3000FC911697EC0DFD1D808190E0C817D90738
:100B400024F30894A11CB11C8C91080F111DF7010E
:100B5000818190E0081719070CF4C1CF84819E01B0
:100B6000280F311DC901DF91CF911F910F91FF9087
:100B7000EF90DF90CF90BF90AF909F908F907F903D
:100B80006F905F904F900895DF92EF92FF920F93D6
:100B90001F93CF93DF93D82E8B017A01E90128812F
:100BA000203C08F026588D2DB801A7010E9423058E
:100BB0009C0121968881882319F0020F131FEFCF23
:100BC000DF91CF911F910F91FF90EF90DF900895EB
:100BD000BF92CF92DF92EF92FF920F931F936C011F
:100BE0008B01B42E50E00E94600476010894E11C51
:100BF000F11CC701B8014B2D50E00E9460040F5F4B
:100C00001F4FC701B8014B2D50E00E946004C60180
:100C1000B8014B2D50E00E9460041F910F91FF908E
:100C2000EF90DF90CF90BF90089581E068E070E092
:100C300048E050E023E331E00E94C4058CE390E0FB
:100C400061E170E041E00E94E805089581E065E11E
:100C500070E041E050E02AE331E00E94C4058FE2F9
:100C600090E06CE070E041E00E94E80581E063E024
:100C700070E040E150E02EE331E00E94C4050895A9
:100C800081E060E170E041E050E026E431E00E9464
:100C9000C40581E060E070E040E150E02BE431E029
:100CA0000E94C405089581E060E070E042E050E0F9
:100CB00023E531E00E94C405089581E063E070E01F
:100CC00041E050E02BE531E00E94C40581E067E09F
:100CD00070E040E150E022E631E00E94C405089552
:100CE0000F931F9310E0882309F411E084E090E053
:100CF0006BE070E044E050E024E130E0012F0E941E
:100D0000B50485E090E06BE070E045E050E024E160
:100D100030E00E94B50480E090E06FE070E049E0D0
:100D200050E02FE030E001E00E94B50480E090E068
:100D300060E170E049E050E020E130E00E94B5045D
:100D40001F910F910895FF920F931F93182F062F55
:100D5000F42E862F6AE00E94190F282F205D812F24
:100D60006BE070E042E050E00E942305802F6AE0D3
:100D70000E94190F905D812F6CE170E042E050E01D
:100D8000292F0E942305812F62E370E042E050E0AA
:100D900023E40E9423058DE290E063E070E04FE2DF
:100DA00050E023E030E001E00E94B5048DE290E0E5
:100DB00068E070E04FE250E028E030E00E94B504C7
:100DC0008CE290E064E070E04CE250E027E030E03C
:100DD0000E94B50480E390E064E070E040E350E0FE
:100DE00027E030E00E94B5048F2D0E9470061F910D
:100DF0000F91FF900895982F462F80E0692F0E9451
:100E0000A30608950F931F93082F162F862F6AE0CD
:100E10000E94190F282F205D802F60E070E042E0D3
:100E200050E00E942305812F6AE00E94190F905D17
:100E3000802F60E170E042E050E0292F0E942305FE
:100E40001F910F9108950F931F93082F162F862F30
:100E50006AE00E94190F282F205D802F62E270E067
:100E600042E050E00E942305812F6AE00E94190FA2
:100E7000905D802F62E370E042E050E0292F0E94F5
:100E800023051F910F9108950F931F93182F8FE142
:100E900090E068E070E04FE150E02AE030E0012FA0
:100EA0000E94B50480E290E068E070E040E250E02B
:100EB0002AE030E00E94B5048FE190E065E170E047
:100EC0004FE150E027E130E00E94B50480E290E07D
:100ED00065E170E040E250E027E130E00E94B504B7
:100EE0001F910F9108950F931F93982F162F042F82
:100EF00080E0692F0E94020780E0612F0E94230793
:100F0000802F0E9444071F910F910895CF92DF9286
:100F1000EF92FF920F937C016B019B012E5F3F4F7D
:100F2000AC01445F5F4FB90101E00E94B504960136
:100F30002F5F3F4FA701465F5F4FC7010296B90180
:100F40000E94B504A701485F5F4FC7010496B60130
:100F500096010E94B504C7010596B60127E030E06E
:100F6000E20EF31EA70196010E94B5040F91FF90B7
:100F7000EF90DF90CF9008950F931F93823299F4F2
:100F800080E091E0E5E8F1E0DF019C011D92215055
:100F90003040E1F780E10E94500B8093850285315B
:100FA000E0F08AE018C08B3339F480E1609185026B
:100FB0000E94760B00E012C0803231F480918502ED
:100FC000833158F48F5F07C0813239F480918502F4
:100FD000823018F081508093850201E010918502E3
:100FE00080E01A3008F481E00E94700680E06BE037
:100FF00070E042E050E020E30E9423051A3038F010
:10100000812F6AE00E94190F292F205D02C02AE378
:10101000211B80E06CE170E042E050E00E9423057B
:1010200081E06DE270E041E150E029E631E00E94AC
:10103000C40586E390E06CE170E041E00E94E805C1
:10104000802F1F910F9108951F93682F8033C1F453
:101050008FEF8093990380939803809397038093F5
:101060009603109295031092940380E091E0E5E8D6
:10107000F1E0DF019C011D9221503040E1F752C0A8
:101080008A3008F04FC080919403909195030097A7
:1010900041F4633008F046C06093960381E090E02D
:1010A00017C08130910559F480919603823011F474
:1010B0006430C0F56093970382E090E009C082300D
:1010C000910559F4663070F56093980383E090E0E1
:1010D000909395038093940325C083309105F1F498
:1010E0006093990384E090E0909395038093940338
:1010F000209196039AE0299F9001112480919703F3
:10110000820F8093960320919803299F90011124C8
:10111000620F609398030E94890902C0049714F03B
:1011200010E001C011E081E00E9444072091960385
:101130002F3F39F481E090E06AE170E00E94860779
:1011400008C0205D80E060E070E042E050E00E9476
:101150002305209197032F3F39F481E190E06AE164
:1011600070E00E94860708C0205D80E060E170E0CA
:1011700042E050E00E942305209198032F3F39F46C
:1011800081E290E06AE170E00E94860708C0205D7D
:1011900080E062E270E042E050E00E94230520918E
:1011A00099032F3F39F483E390E06AE170E00E94F5
:1011B000860708C0205D80E062E370E042E050E016
:1011C0000E942305812F1F910895399A389A219AF8
:1011D0003A9A0E94810E86E08093B100E0E7F0E049
:1011E00080818160808380E091E0E5E8F1E0DF01CB
:1011F0009C011D9221503040E1F708954298299AB0
:10120000299880919A03813049F0813028F082300A
:1012100039F0833051F407C0409803C0409804C0AF
:10122000409A419802C0409A419A429A8F5F8093B7
:101230009A03843010F010929A0380919A0390E000
:101240000E94520E08951F920F920FB60F92112412
:101250002F933F934F935F936F937F938F939F93BE
:10126000AF93BF93EF93FF930E94FE0880919B037F
:101270008F5F80939B0381508A3118F0A89510925C
:101280009B03FF91EF91BF91AF919F918F917F91C0
:101290006F915F914F913F912F910F900FBE0F90E3
:1012A0001F90189580919D03089580919E03089545
:1012B00080919F030895482F6AE00E94190F282FFC
:1012C00030E084E0220F331F8A95E1F7842F0E94DB
:1012D000190F892F820F0895282F22952F709AE0D9
:1012E000299F900111248F70820F08950F931F93EF
:1012F000182F062F80ED60E00E94940B812F0E9432
:10130000DE0B802F0E94DE0B0E94CE0B1F910F91EF
:1013100008958831E0F46C33D0F410929D0360930B
:101320009E0380939F0380E060E00E947609809195
:101330009E030E945B09682F81E00E9476098091DC
:101340009F030E945B09682F82E00E94760908953E
:101350001F93182F80ED60E00E94940B812F0E9454
:10136000DE0B0E94CE0B80ED61E00E94940B0E9488
:10137000F80B182F0E940A0C0E94CE0B812F1F9190
:10138000089580E00E94A8090E946C0980939D0343
:1013900081E00E94A8090E946C0980939E0382E06C
:1013A0000E94A809282F30E0482F4F7086FF12C0F6
:1013B00020723070A5E035952795AA95E1F7C9010F
:1013C000880F991F820F931F880F991F880F991FED
:1013D000480F13C0C9018073907074E0959587958C
:1013E0007A95E1F79C0163E0220F331F6A95E1F7DC
:1013F000880F991F280F391F420F40939F030895AC
:10140000DF93CF9300D0CDB7DEB780919F038330B9
:1014100009F053C080919E03813009F04EC080E0F6
:101420000E94A8090E946C098A8386E493E00E94C6
:10143000C10ECE01029661E070E00E94CE0E8A815C
:1014400080518D31E0F586E593E00E94C10E8CE974
:1014500093E061E070E00E94CE0E80919C038823AF
:1014600071F580E10E94500B89838FE593E00E9423
:10147000C10ECE01019661E070E00E94CE0E99810E
:10148000892F82508231A8F48A81980F9A509A83CA
:101490008A810E945B09682F80E00E94760989E6B4
:1014A00093E00E94C10ECE01029661E070E00E94BE
:1014B000CE0E81E080939C0302C010929C030F909B
:1014C0000F90CF91DF9108951F93182F80E00E9415
:1014D000A809682F112311F06F7701C0606880E0C0
:1014E0000E9476091F91089560E573EC80E090E01A
:1014F0000E947A0B81E00E94640A08958091A20301
:1015000008958091A30308958091A40308951F93E3
:10151000182F0E941C0C812F0E94760C1F91089599
:101520001092A00381E00E94870A8823A1F085EA37
:1015300093E061E00E94C70C85EA93E068E070E008
:101540000E94F40C882339F481E08093A0038091F9
:10155000A5038093A1030895CF93DF938091A00307
:10156000813009F067C00E94760C8CEC61E00E942B
:10157000960C84E461E00E94960C80E197E220E9F9
:1015800031E0F9013197F1F70197D9F781E00E9435
:10159000760C8CEC61E00E94960C8EEB61E00E9470
:1015A000960CC5EAD3E081E00E94AE0C899383E0FB
:1015B000CE3AD807C1F7CE01099769E070E00E94E2
:1015C000F40C8823C9F59091A603892F8078809325
:1015D000A403882341F08091A50380958093A503FF
:1015E00090959093A6038091A103803149F4909146
:1015F000A503892F86958093A20390FF15C016C07E
:10160000883211F08232B1F48091A5032091A603B3
:101610002295207F382F32953F70232B2093A203F1
:1016200090E0019683FD02C080E001C085E08093D8
:10163000A30302C00E94900ADF91CF910895EF9218
:10164000FF920F931F938C010E946E0FE82EC8012A
:1016500080589F4F0E946E0FF82EC80180509F4FF8
:101660000E946E0F9F2D9695F0FE03C0292F2068D3
:1016700001C0292F982F969580FD9068892F869517
:1016800090FF03C0982F906801C0982F892F822B5C
:101690008E219223892B1F910F91FF90EF90089537
:1016A00090E00E941F0B08951F93CF93DF93EC01EE
:1016B000162F0E94760F612F660F17FF03C0162F9B
:1016C000116001C0162FCE0180589F4F612F0E94DC
:1016D000760F612F660F17FD6160CE0180509F4F1E
:1016E0000E94760FDF91CF911F91089590E00E94A4
:1016F000540B08959B01AC0160E074E284EF90E02C
:101700000E94380F20513040404050405695479538
:10171000379527952093B8008091B80090E08B30E2
:1017200008F091E0892F0895982F84EA8093BC00F7
:1017300028EE33E005C02115310531F0215030404D
:101740008091BC0087FFF7CF8091B900887F8830F7
:1017500021F0803111F090E01FC0690F6093BB0051
:1017600084E88093BC0028EE33E005C021153105E4
:1017700031F0215030408091BC0087FFF7CF80913D
:10178000B900887F883111F491E006C090E0803480
:1017900009F091E081E09827892F089584E98093EA
:1017A000BC0028EE33E005C02115310531F0215091
:1017B00030408091BC0084FDF7CF08958093BB003A
:1017C00084E88093BC0028EE33E005C02115310584
:1017D00031F0215030408091BC0087FFF7CF8091DD
:1017E000B90090E0887F883209F091E0892F089550
:1017F00084EC8093BC0028EE33E005C02115310550
:1018000031F0215030408091BC0087FFF7CF8091AC
:10181000BB00089584E88093BC0028EE33E005C047
:101820002115310531F0215030408091BC0087FFF7
:10183000F7CF8091BB00089524B1982F9095922303
:1018400094B995B1982B95B980E897E00197F1F795
:101850000895F89494B1982B94B995B1282F2095B8
:10186000922395B990E29A95F1F794B1292324B97E
:1018700095B1982B95B980E091E00197F1F77894B4
:101880000895F89494B1982B94B995B1282F209588
:10189000922395B9E0EFF0E03197F1F794B1292365
:1018A00024B995B1982B95B985E38A95F1F7789489
:1018B0000895F89494B1982B94B995B1282F209558
:1018C000922395B990E29A95F1F794B1292324B91E
:1018D00095B1982B95B990E39A95F1F793B1ECED0A
:1018E000F0E03197F1F7789489230895F89494B152
:1018F000982B94B995B1282F2095922395B9E0E8BB
:10190000F7E03197F1F794B1292324B995B1982BD9
:1019100095B9E8ECF0E03197F1F793B1E8EBF6E038
:101920003197F1F77894909589230895FF920F935A
:101930001F93082FF62E10E000FF04C08F2D0E9489
:10194000290C03C08F2D0E94410C1F5F183011F02D
:101950000695F2CF1F910F91FF900895FF920F937C
:101960001F93F82E10E000E016958F2D0E94590C61
:10197000811110680F5F0830B9F7812F1F910F9107
:10198000FF900895682F8CEC0E94960C08950F9399
:101990001F93CF93DF93EC01062F83E30E94960CF5
:1019A00018E0802F0E94AE0C89931150D1F7DF917F
:1019B000CF911F910F9108950F931F93CF93DF93B2
:1019C000EC01062F85E50E94960C18E08991602FA6
:1019D0000E94960C1150D1F7DF91CF911F910F917A
:1019E00008958091AE0308951F93FC0140E050E0FC
:1019F00090E018E117C0A08120E030E08A2F89270D
:101A0000B82FB17080FD91279695B13009F4906898
:101A10002F5F3F4F2830310511F0A695EFCF31965B
:101A20004F5F5F4F4617570734F3892F1F91089573
:101A30001F920F920FB60F9211242F933F934F9343
:101A40008F939F932091B3033091B40388EF86BDA9
:101A500049B18091B2038F5F8093B203823150F01D
:101A600036FD06C035FF04C03093B1032093B003A8
:101A700020E030E09091B503492747FF15C09095CD
:101A80009093B503863018F420E030E005C02115AE
:101A9000310511F08C3040F036FD02C0220F331FAB
:101AA00097FF21601092B2033093B4032093B303E5
:101AB0009F918F914F913F912F910F900FBE0F905B
:101AC0001F90189557985F9A84E085BDEEE6F0E088
:101AD0008081816080830895FC01F8948091B00337
:101AE0009091B1031092B1031092B00378940097D3
:101AF00011F480E008958F73808381E00895089544
:101B00003B9A282F2095F8949AE087E8089410F4DF
:101B1000439802C0439A00000E94940D0E94940DC5
:101B200026959A95A1F704C0182E1A94F1F70895F6
:101B3000439A789480ED97E00197F1F70895CF9359
:101B4000DF93EC0103C021960E94800D88818823D9
:101B5000D1F7DF91CF910895CF92DF92FF920F934B
:101B60001F93DF93CF9300D000D000D0CDB7DEB766
:101B70008C01F62EDE011196E0E8F3E086E001909C
:101B80000D928150E1F71BC0F8018081382F32950A
:101B90003F708F703A3010F420E301C027E58A309F
:101BA00010F490E301C097E50F5F1F4F230F2B83C5
:101BB000980F9C83C6010E949F0DFA9404C06E0189
:101BC0000894C11CD11CFF20F9F68CE793E00E9419
:101BD0009F0D26960FB6F894DEBF0FBECDBFCF91F6
:101BE000DF911F910F91FF90DF90CF9008951F928A
:101BF0000F920FB60F9211242F938F939F93EF9311
:101C0000FF938091B603803109F442C08091B803FC
:101C100084508093B803E091B6038091B70320917C
:101C2000B8039091B903F0E0EE0FFF1FEE0FFF1F16
:101C3000EE0FFF1FE80FF11D84E0EE0FFF1F8A95E6
:101C4000E1F7E358FE4FE90FF11DE20FF11D80852A
:101C500080958EBD8091B8038823D1F480E1809374
:101C6000B8038091B7038F5F8093B7038091B70368
:101C7000883070F01092B7038091B603882319F46E
:101C800081E18093B6038091B60381508093B603BF
:101C9000FF91EF919F918F912F910F900FBE0F9019
:101CA0001F9018958093B9038CE08093B80310922D
:101CB000B70381E08093B603E091B6038091B70348
:101CC0002091B8039091B903F0E033E0EE0FFF1FCD
:101CD0003A95E1F7E80FF11D84E0EE0FFF1F8A95BA
:101CE000E1F7E358FE4FE90FF11DE20FF11D80858A
:101CF00080958EBD08958EBD0DB407FEFDCF8EB5C7
:101D0000089584B18C6384B98CB5806F8CBD8CB51B
:101D10008C7F8CBD8DB581608DBD0895982F80918D
:101D2000C00085FFFCCF9093C60008958091C0004D
:101D300087FFFCCF9091C6008091C00085FFFCCF4B
:101D40009093C600892F0895882321F08091C100C7
:101D5000806803C08091C1008F778093C10008958F
:101D60005098519A88E18093C10086E08093C20028
:101D700082E08093C0001092C50082E28093C4008C
:101D80000895FC0107C08091C00085FFFCCF31960B
:101D90009093C60090819923B1F70895CF92DF9276
:101DA000FF920F931F93DF93CF9300D000D000D00A
:101DB000CDB7DEB78C01F62EDE011196EAE8F3E02E
:101DC00086E001900D928150E1F71BC0F8018081FF
:101DD000382F32953F708F703A3010F420E301C0F5
:101DE00027E58A3010F490E301C097E50F5F1F4F9D
:101DF000230F2B83980F9C83C6010E94C10EFA9477
:101E000004C06E010894C11CD11CFF20F9F686E8BD
:101E100093E00E94C10E26960FB6F894DEBF0FBE67
:101E2000CDBFCF91DF911F910F91FF90DF90CF90A9
:101E30000895991B79E004C0991F961708F0961B26
:101E4000881F7A95C9F78095089597FB092E072674
:101E50000AD077FD04D02ED006D000201AF4709559
:101E600061957F4F0895F6F7909581959F4F08955E
:101E7000A1E21A2EAA1BBB1BFD010DC0AA1FBB1F8E
:101E8000EE1FFF1FA217B307E407F50720F0A21B00
:101E9000B30BE40BF50B661F771F881F991F1A946D
:101EA00069F760957095809590959B01AC01BD0197
:101EB000CF010895AA1BBB1B51E107C0AA1FBB1F7E
:101EC000A617B70710F0A61BB70B881F991F5A95C6
:101ED000A9F780959095BC01CD010895F999FECFA1
:101EE00092BD81BDF89A992780B50895262FF9995A
:101EF000FECF1FBA92BD81BD20BD0FB6F894FA9AED
:0C1F0000F99A0FBE01960895F894FFCFE7
:101F0C000A0D20436C6F636B2055706461746520FF
:101F1C00000A0D20526561642054656D7020000A22
:101F2C000D20475320436C6F636B2076322E30327A
:101F3C00200001C7C0C3D0D3C700D2C5D500CFC5C0
:101F4C00D0C5D0DBC200D1CBC8C200D230CFCBC8F9
:101F5C00C2C000D1CFC0D1C8C13000C7C8CCCDC819
:101F6C00C900C4C8C7C5CBDC00D100023630390269
:101F7C00860268000236303901C502BA02400020E0
:101F8C00000800020000000000000000000000003B
:101F9C000000000000000000000000000000000035
:101FAC000000000000000000000000000000000025
:101FBC000000000000000000000000000000000015
:101FCC000000000000000000000000000000000005
:101FDC0000000000000000000000000000000000F5
:101FEC0000000000000000000000000000000000E5
:101FFC0000000000000000000000000000000000D5
:10200C0000000000000000000000000000000000C4
:10201C0000000000000000000000000000000000B4
:10202C0000000000000000000000000000000000A4
:10203C000000000000000000000000000000000094
:10204C000000000000000000000000000000000084
:10205C000000000000000000000000000000000074
:10206C000000000000000000000000000000000064
:10207C000000000000000000000000000000000054
:10208C0000000000000A0E00000E36000E6C000E60
:10209C00A2000ED8000E0E010E44010E7A010EB0F5
:1020AC00010EE601001C0200000000000000000010
:1020BC000000000000000000000000000000000E06
:1020CC001C020E5202070000060D00071A0006271C
:1020DC0000083400064100074E00075B000768004B
:1020EC000975000A8F0007A90007B60006C3000A8D
:1020FC00D00006F0000EFD00061701092401093E70
:10210C00010A5E010978010C920108AC0109B901C0
:10211C0008D30107E00108ED0108FA010907020ADA
:10212C002102093B020955020775020B82020D9C24
:10213C00020ABC020BD60207F00208FD020D0A03CC
:10214C000824030832030A0D2054696D652061646C
:10215C006A75737420000A0D20466C616720000AB2
:10216C000D20526561642020000A0D2054696D65B4
:10217C002061646A757374206E657700200A0D0007
:10218C00307871712000200A0D00307871712000B8
:00000001FF
