:10000000D4C2EEC2EDC2ECC2EBC7EAC2E9C2E8C29A
:10001000E7C2C7CA9FCBE4C2E3C2E2C2E1C2E0C208
:10002000DFC2DEC2DDC2FC0FFE1FFF3F073807380C
:1000300007380738073807380738073807380210F5
:100040000210021007380738073807380738073812
:10005000073807380738FF3FFE1FFC0F0010003835
:1000600000380038003800380038003800380038D0
:100070000038003800100010001000380038003838
:1000800000380038003800380038003800380038B0
:100090000010FE0FFF1FFE3F003800380038003808
:1000A00000380038003800380038FC3FFE1FFF0FD2
:1000B0000700070007000700070007000700070008
:1000C0000700FF1FFE3FFC1FFE0FFF1FFE3F003813
:1000D0000038003800380038003800380038003860
:1000E000FE1FFF1FFE1F00380038003800380038A0
:1000F0000038003800380038FE3FFF1FFE0F0210A6
:1001000007380738073807380738073807380738F7
:10011000073807380738FF1FFE1FFC1F003800385C
:10012000003800380038003800380038003800380F
:1001300000380010FC1FFE3FFF1F070007000700EC
:10014000070007000700070007000700FF0FFE1F5A
:10015000FC3F0038003800380038003800380038DC
:1001600000380038FE3FFF1FFE0FFC1FFE3FFF1F41
:100170000700070007000700070007000700070047
:100180000700FE0FFE1FFE3F073807380738073805
:1001900007380738073807380738FF3FFE1FFC0FBE
:1001A000FE0FFF1FFE3F00380038003800380038CF
:1001B00000380038003800380010001000100038F7
:1001C000003800380038003800380038003800386F
:1001D000003800380010FC0FFE1FFF3F07380738BB
:1001E0000738073807380738073807380738FE1F39
:1001F000FE1FFE1F0738073807380738073807384B
:10020000073807380738FF3FFE1FFC0FFC0FFE1FA3
:10021000FF3F0738073807380738073807380738E7
:1002200007380738FF1FFE1FFC1F00380038003852
:10023000003800380038003800380038FE3FFF1F13
:10024000FE0FFC0FFE1FFF3F0738071007000700D7
:10025000070007000700070007000700030007006A
:100260000700070007000700070007000700071046
:100270000738FF3FFE1FFC0F1C3E7663636363631A
:100280006363373E1C0E0F0C0C0C0C0C0C0C0C0C8E
:100290003F3F1E7F6160603030180C06027F7F1E7A
:1002A0003F3130381E1E383030391F0E607078787C
:1002B0006C6C6663FFFF6060603F3F0303031F1FBA
:1002C000383030391F0E1C3E0E07073F7F676767C7
:1002D000673E1C7F7F6030303038181C1C0C0E0EBF
:1002E0003C7E6363633E1E366363637E1C7C00FE5C
:1002F00000E700C301C301E701FE01DC01C001C04A
:1003000001E2007E003C0070007000D800D800D8E8
:1003100000CC008C018C01FE01FE010603030303E7
:10032000033F3F0303031F3F736363733F1F3F7F1D
:100330006363631F3F636363633F1F3F3F030303C5
:100340000303030303030303F801F8019801980171
:1003500098019C018C018C018C0186018601FF03B0
:10036000FF030303030303033F3F0303033F3F0371
:100370000303033F3FC318C618C60CCC0CDC0EF8B1
:1003800007F807DC0ECC0CCE1CC618C738C3301ECD
:100390003F3130301E1E383030391F0EC301C301CB
:1003A000E301E301B301B3019B019B019F018F01B5
:1003B0008F0187018701840078000000C301C30119
:1003C000E301E301B301B3019B019B019F018F0195
:1003D0008F0187010000C301E300E30073003300D5
:1003E0001B001F003B007300E300E300C301830315
:1003F000F801F801980198019C019C018C018C0185
:100400008C018C018E018F0187010F0F0F0F0F0FD1
:100410000F0F9F0D9F0D9B0D9B0DDB0CF30CF30C31
:10042000730C630CC3C3C3C3C3FFFFC3C3C3C3C342
:10043000C37800FE00C6008301830183018301832A
:100440000183018301C600FE007C00FFFFC3C3C31C
:10045000C3C3C3C3C3C3C3C31F3F736363733F1F1C
:10046000030303030378FC8E070303030303078ED0
:10047000FC78FFFF1818181818181818181818C73B
:1004800001C701CE00EE00EC007C0078003800309F
:1004900000300018001F000F003000FC00FE01B605
:1004A000033303330333033303B703FE01FC00308C
:1004B0000030008701CF01CE00FE007C007C0038B8
:1004C000007C007C00E600E600C301C301C300C35A
:1004D00000C300C300C300C300C300C300C300C304
:1004E00000C300FF01FF018001800180016363639D
:1004F000636363737F6E60606060630663066306B8
:1005000063066306630663066306630663066306A3
:10051000FF07FF07630C630C630C630C630C630C35
:10052000630C630C630C630C630CFF1FFF1F00184C
:10053000001800181F001F00180018001800F8000D
:10054000F8019803180318039803F801F80003064C
:1005500003060306030603061F063F06730663062B
:10056000630673063F061F0603030303031F3F735F
:100570006363733F1F1E3F71E0E0FEFEE0E0E07149
:100580003F1FC307E30F630C731833183F183F185E
:10059000331833183318630CE30FC307FCFEC7C3CB
:1005A000C3C6FCFCCECEC6C7C70011241FBECFE514
:1005B000D4E0DEBFCDBF12E0A0E6B0E0EAE0FAE1B1
:1005C00002C005900D92AC38B107D9F712E0ACE843
:1005D000B2E001C01D92A73BB107E1F7CED013CA2C
:1005E0000FCD1F938823B9F481E0809367008ED5E7
:1005F00080E091E0E8EBF0E0DF019C011D922150EA
:100600003040E1F72CD5182F27D5682F812F409146
:10061000670039D311C080918D028C3310F080E0D7
:100620000CC065E09BD9992339F4809167008F5FF6
:10063000809367008170FCD281E01F9108951F9321
:10064000882391F480E091E0E8EBF0E0DF019C0189
:100650001D9221503040E1F7C0D5182FC4D5682F26
:10066000812FC5D3E3D505C090E080918D028531FF
:1006700008F491E0892F1F9108958EE892E0E4D765
:10068000882311F490E048C080918E02803311F4E9
:1006900080EF38C0873361F480E091E0E8EBF0E070
:1006A000DF019C011D9221503040E1F745D229C065
:1006B000863361F480E091E0E8EBF0E0DF019C013B
:1006C0001D9221503040E1F74ED21BC0843361F4BB
:1006D00080E091E0E8EBF0E0DF019C011D92215009
:1006E0003040E1F751D20DC0823379F480E091E0DF
:1006F000E8EBF0E0DF019C011D9221503040E1F772
:100700004CD281EF80938F0206C08C3021F410927E
:100710008F0210928D0291E080918F02813079F0EA
:10072000813028F0803FD1F0813F21F508958091FC
:100730008D028F5F80938D02815053DF07C08091BF
:100740008D028F5F80938D02815079DF8823A1F421
:1007500080918F028F5F80938F0209C0992361F08F
:1007600080918E024AD3882339F410928F0210921E
:100770008D02089510928F020895CF93DF9388EB36
:100780009BE020E931E0F9013197F1F70197D9F7C2
:1007900086D8EAD3C2D119D549D548D54DD7789452
:1007A000C0E9D1E080E690E086D88DE892E061E093
:1007B0008CD888EE93E0FE013197F1F70197D9F7D5
:1007C0005CDFF0CF9C018091B0009091B100821766
:1007D000930708F44BC08091B2009091B300861744
:1007E000970708F443C0F90183E0F695E7958A95E9
:1007F000E1F7CB018F709070B4E076956795BA956C
:10080000E1F7A3E0660F771FAA95E1F72770307034
:10081000452BB1F0E60FF71F44E0EE0FFF1F4A959E
:10082000E1F7E055FF4FE80FF91F81E090E002C0CB
:10083000880F991F2A95E2F72085282B2087089595
:10084000E60FF71F34E0EE0FFF1F3A95E1F7E05592
:10085000FF4FE80FF91F81E090E002C0880F991F59
:100860002A95E2F7809520858223808708955F92FC
:100870006F927F928F929F92AF92BF92CF92DF92B0
:10088000EF92FF920F931F93CF93DF936C017B0145
:100890003A014901502E5901A61AB70A8A01081BCC
:1008A000190BAA0CBB1C000F111F452D50E08ADF4D
:1008B000A016B106E0F4C80196958795E501C81B1E
:1008C000D90B11C0D7FD05C00894E11CF11CC01B59
:1008D000D10B0894C11CD11CCA0DDB1DC601B70188
:1008E000452D50E06FDFC614D70461F71BC0C5016A
:1008F00096958795E801C81BD90B11C0D7FD05C097
:100900000894C11CD11CCA19DB090894E11CF11C14
:10091000C00FD11FC601B701452D50E053DFE814C9
:10092000F90461F7DF91CF911F910F91FF90EF9044
:10093000DF90CF90BF90AF909F908F907F906F90FF
:100940005F9008954F925F926F927F928F929F92E5
:10095000AF92BF92CF92DF92EF92FF920F931F93CD
:10096000CF93DF933B015A0199E0899F70011124D5
:100970008EE990E0E80EF91E30E0C901C0976C01E5
:10098000CC0CDD1CC80ED91ED7011596ED91FC913B
:1009900016978F010C0D1D1DD8018C9190E00197C9
:1009A00068E070E0E7D76F5FD7016C932F5230405B
:1009B000C901880F991F820F931FE80FF91F8181CA
:1009C000F8019181891B11968C9300E010E0C0E042
:1009D000D0E061E0462E512C37C0D7011596ED913D
:1009E000FC911697EC0DFD1D81819281800F911F66
:1009F0001796ED91FC911897E80FF91F8590949048
:100A0000C0E0D0E00FC0A2010C2E02C0440F551F61
:100A10000A94E2F748215921CE01860D971DB501B0
:100A2000D1DE2196D7011596ED91FC911697EC0D2C
:100A3000FD1D808190E0C817D9072CF30894A11CF4
:100A4000B11C8C91080F111DF701818190E00817EE
:100A500019070CF4C2CF84819E01280F311DC901F2
:100A6000DF91CF911F910F91FF90EF90DF90CF908A
:100A7000BF90AF909F908F907F906F905F904F90BE
:100A80000895DF92EF92FF920F931F93CF93DF931E
:100A9000D82E8B017A01E9012881203C08F02658E4
:100AA0008D2DB801A7014EDF9C01219688818823F6
:100AB00019F0020F131FF0CFDF91CF911F910F910B
:100AC000FF90EF90DF900895BF92CF92DF92EF9268
:100AD000FF920F931F936C018B01B42E50E072DED6
:100AE00076010894E11CF11CC701B8014B2D50E0C0
:100AF00069DE0F5F1F4FC701B8014B2D50E062DE6A
:100B0000C601B8014B2D50E05DDE1F910F91FF90A3
:100B1000EF90DF90CF90BF90089581E068E070E0A3
:100B200048E050E028E630E0ACDF8CE390E061E1A3
:100B300070E041E0C9DF089581E065E170E041E0E7
:100B400050E02FE630E09DDF8FE290E06CE070E057
:100B500041E0BADF81E063E070E040E150E023E78C
:100B600030E08FDF089581E060E170E041E050E027
:100B70002BE730E086DF81E060E070E040E150E0AC
:100B800020E830E07EDF089581E060E070E042E040
:100B900050E028E830E075DF089581E063E070E020
:100BA00041E050E020E930E06CDF81E067E070E098
:100BB00040E150E027E930E064DF08950F931F9390
:100BC000082F162F862F6AE0C9D6282F205D802F88
:100BD00060E070E042E050E0B5DE812F6AE0BED612
:100BE000905D802F60E170E042E050E0292FAADEA6
:100BF0001F910F9108950F931F93082F162F862F83
:100C00006AE0ACD6282F205D802F62E270E042E0DF
:100C100050E098DE812F6AE0A1D6905D802F62E3DC
:100C200070E042E050E0292F8DDE1F910F91089572
:100C30000F931F93182F8FE190E068E070E04FE171
:100C400050E02AE030E0012F12DE80E290E068E020
:100C500070E040E250E02AE030E009DE8FE190E011
:100C600065E170E04FE150E027E130E000DE80E236
:100C700090E065E170E040E250E027E130E0F7DD30
:100C80001F910F9108950F931F93982F162F042FE4
:100C900080E0692F93DF80E0612FADDF802FC8DF18
:100CA0001F910F910895CF92DF92EF92FF920F93D1
:100CB0007C016B019B012E5F3F4FAC01445F5F4F96
:100CC000B90101E0D4DD96012F5F3F4FA701465FD8
:100CD0005F4FC7010296B901CADDA701485F5F4FA8
:100CE000C7010496B6019601C2DDC7010596B6019B
:100CF00027E030E0E20EF31EA7019601B8DD0F9168
:100D0000FF90EF90DF90CF900895FF920F931F9385
:100D1000182F062FF42E862F6AE020D6282F205D6C
:100D2000812F6BE070E042E050E00CDE802F6AE043
:100D300015D6905D812F6CE170E042E050E0292FE4
:100D400001DE812F62E370E042E050E023E4FADD4F
:100D50008DE290E063E070E04FE250E023E030E0AD
:100D600001E085DD8DE290E068E070E04FE250E068
:100D700028E030E07CDD8CE290E064E070E04CE262
:100D800050E027E030E073DD80E390E064E070E065
:100D900040E350E027E030E06ADD80E090E06FE083
:100DA00070E049E050E02FE030E061DD80E090E06D
:100DB00060E170E049E050E020E130E058DDFF20E4
:100DC00091F484E090E06BE070E044E050E024E1D6
:100DD00030E04DDD85E090E06BE070E045E050E014
:100DE00024E130E044DD1F910F91FF900895982F8A
:100DF000462F80E0692F89DF08951F93682F803385
:100E0000C1F48FEF809395028093940280939302B4
:100E100080939202109291021092900280E091E0F1
:100E2000E8EBF0E0DF019C011D9221503040E1F73A
:100E300051C08A3008F04EC080919002909191028A
:100E4000009741F4633008F045C06093920281E05E
:100E500090E017C08130910559F480919202823060
:100E600011F46430B8F56093930282E090E009C019
:100E70008230910559F4663068F56093940283E0FE
:100E800090E0909391028093900224C0833091056A
:100E9000E9F46093950284E090E09093910280934E
:100EA0009002209192029AE0299F90011124809152
:100EB0009302820F8093920220919402299F9001C5
:100EC0001124620F60939402F5D002C0049714F0CD
:100ED00010E001C011E081E0ABDE209192022F3FD3
:100EE00031F481E090E06AE170E0DDDE07C0205D72
:100EF00080E060E070E042E050E024DD2091930269
:100F00002F3F31F481E190E06AE170E0CCDE07C070
:100F1000205D80E060E170E042E050E013DD209170
:100F200094022F3F31F481E290E06AE170E0BBDE91
:100F300007C0205D80E062E270E042E050E002DD48
:100F4000209195022F3F31F483E390E06AE170E055
:100F5000AADE07C0205D80E062E370E042E050E07E
:100F6000F1DC812F1F91089587B3836087BB18BA86
:100F700081B3806C81BB12BA76D486E085BD80E4F3
:100F800089BF80E091E0E8EBF0E0DF019C011D9279
:100F900021503040E1F708959698C19AC198809108
:100FA0009602813049F0813028F0823039F0833068
:100FB00051F407C0979803C0979804C0979AC098B7
:100FC00002C0979AC09A969A8F5F80939602843057
:100FD00010F0109296028091960290E016D4089537
:100FE0001F920F920FB60F9211242F933F934F939E
:100FF0005F936F937F938F939F93AF93BF93EF9381
:10100000FF93CADFFF91EF91BF91AF919F918F91B5
:101010007F916F915F914F913F912F910F900FBEF4
:101020000F901F90189580919702909198020196C9
:101030009093980280939702419714F481E0089569
:10104000109298021092970281E090E0DED380E047
:10105000089580919A02089580919B02089580914D
:101060009C020895482F6AE079D4282F30E084E06C
:10107000220F331F8A95E1F7842F70D4892F820FB6
:101080000895282F22952F709AE0299F900111240E
:101090008F70820F08950F931F93182F062F80EDE6
:1010A00060E046D1812F6DD1802F6BD164D11F912B
:1010B0000F9108958831B8F46C33A8F410929A0215
:1010C00060939B0280939C0280E060E0E4DF80916B
:1010D0009B02C8DF682F81E0DEDF80919C02C2DFC7
:1010E000682F82E0D8DF08951F93182F80ED60E00D
:1010F0001FD1812F46D13FD180ED61E019D14FD171
:10110000182F54D138D1812F1F91089580E0ECDF42
:10111000B8DF80939A0281E0E7DFB3DF80939B0220
:1011200082E0E2DF282F30E0482F4F7086FF12C0A8
:1011300020723070A5E035952795AA95E1F7C90191
:10114000880F991F820F931F880F991F880F991F6F
:10115000480F13C0C9018073907074E0959587950E
:101160007A95E1F79C0163E0220F331F6A95E1F75E
:10117000880F991F280F391F420F40939C02089532
:1011800080919C02833081F480919B02882361F4DA
:10119000ABDF8051823250F480919902882331F480
:1011A00081E08093990208951092990208951F9307
:1011B000182F80E099DF682F112311F06F7701C09D
:1011C000606880E068DF1F91089560E573EC80E05F
:1011D00090E097D081E0EBDF089580919F02089521
:1011E0008091A00208958091A10208951F93182F65
:1011F000E4D0812F3CD11F91089510929D0284E08C
:10120000F5DF882391F082EA92E064E07DD182EA02
:1012100092E068E070E0A1D1882339F481E0809306
:101220009D028091A20280939E020895CF93DF9346
:1012300080919D02813009F060C084E018D18CEC6F
:1012400064E035D184E464E032D180E197E220E9C2
:1012500031E0F9013197F1F70197D9F784E007D12F
:101260008CEC64E024D18EEB64E021D1C2EAD2E0C0
:1012700084E033D1899382E0CB3AD807C9F7CE0115
:10128000099769E070E069D18823C1F59091A302C4
:10129000892F80788093A102882341F08091A20257
:1012A00080958093A20290959093A30280919E02D4
:1012B000803149F49091A202892F869580939F02F4
:1012C00090FF15C016C0883211F08232B1F48091BF
:1012D000A2022091A3022295207F382F32953F70E1
:1012E000232B20939F0290E0019683FD02C080E0B3
:1012F00001C085E08093A00201C07FDFDF91CF9124
:1013000008959B01AC0160E074E284EF90E045D366
:10131000205130404040504056954795379527958D
:1013200020B980B190E08B3008F091E0892F0895CA
:10133000982F84EA86BF06B607FEFDCF81B1887F6D
:10134000883021F0803111F090E013C0690F63B94B
:1013500084E886BF06B607FEFDCF81B1887F88315D
:1013600011F491E006C090E0803409F091E081E052
:101370009827892F089584E986BF06B604FCFDCF1F
:10138000089583B984E886BF06B607FEFDCF81B114
:1013900090E0887F883209F091E0892F089584ECED
:1013A00086BF06B607FEFDCF83B1089584E886BFE9
:1013B00006B607FEFDCF83B1089521B3982F90950F
:1013C000922391BB92B3982B92BB80E897E0019750
:1013D000F1F70895F89491B3982B91BB92B3282F0D
:1013E0002095922392BB90E29A95F1F791B329232D
:1013F00021BB92B3982B92BB80E091E00197F1F76B
:1014000078940895F89491B3982B91BB92B3282FB8
:101410002095922392BBE0EFF0E03197F1F791B382
:10142000292321BB92B3982B92BB85E38A95F1F7D0
:1014300078940895F89491B3982B91BB92B3282F88
:101440002095922392BB90E29A95F1F791B32923CC
:1014500021BB92B3982B92BB90E39A95F1F790B38E
:10146000ECEDF0E03197F1F7789489230895F89442
:1014700091B3982B91BB92B3282F2095922392BBC6
:10148000E0E8F7E03197F1F791B3292321BB92B35C
:10149000982B92BBE8ECF0E03197F1F790B3E8EBD2
:1014A000F6E03197F1F77894909589230895FF92AB
:1014B0000F931F93082FF62E10E000FF03C08F2D0F
:1014C00089DF02C08F2D9EDF1F5F183011F0069557
:1014D000F4CF1F910F91FF900895FF920F931F93E8
:1014E000F82E10E000E016958F2DA4DF8111106812
:1014F0000F5F0830C1F7812F1F910F91FF90089562
:10150000682F8CECD4DF08950F931F93CF93DF9354
:10151000EC01062F83E3CBDF18E0802FDEDF899319
:101520001150D9F7DF91CF911F910F9108950F932B
:101530001F93CF93DF93EC01062F85E5B8DF18E00A
:101540008991602FB4DF1150D9F7DF91CF911F91AE
:101550000F9108958091AB0208951F93FC0140E024
:1015600050E090E018E117C0A08120E030E08A2F21
:101570008927B82FB17080FD91279695B13009F475
:1015800090682F5F3F4F2830310511F0A695EFCFBF
:1015900031964F5F5F4F4617570734F3892F1F91DE
:1015A00008951F920F920FB60F9211242F933F931D
:1015B0004F938F939F932091B0023091B10288EFA7
:1015C00082BF80B34091AF024F5F4093AF02423180
:1015D00050F036FD06C035FF04C03093AE022093B4
:1015E000AD0220E030E09091B202892783FF16C05F
:1015F000892F80958093B202463018F420E030E0C5
:1016000005C02115310511F04C3040F036FD02C007
:10161000220F331F83FF21601092AF023093B1027B
:101620002093B0029F918F914F913F912F910F90F6
:101630000FBE0F901F9018958B98939A84E083BFEC
:1016400089B7816089BF0895FC01F8948091AD024B
:101650009091AE021092AE021092AD027894009773
:1016600011F480E008958F73808381E008950895D8
:10167000A39A282F2095F8949AE087E8089410F40C
:10168000AB9802C0AB9A000005D004D026959A957D
:10169000B1F704C0182E1A94F1F70895AB9A789414
:1016A00080ED97E00197F1F70895CF93DF93EC0178
:1016B00002C02196DDDF88818823D9F7DF91CF91A1
:1016C0000895CF92DF92FF920F931F93DF93CF93F2
:1016D00000D000D000D0CDB7DEB78C01F62EDE01F1
:1016E0001196ECE7F2E086E001900D928150E1F76F
:1016F0001AC0F8018081382F32953F708F703A30D0
:1017000010F420E301C027E58A3010F490E301C013
:1017100097E50F5F1F4F230F2B83980F9C83C60104
:10172000C4DFFA9404C06E010894C11CD11CFF20D0
:1017300001F788E792E0B9DF26960FB6F894DEBF8E
:101740000FBECDBFCF91DF911F910F91FF90DF9022
:10175000CF9008951F920F920FB60F9211242F93DE
:101760008F939F93EF93FF938091B302803109F49D
:1017700042C08091B50284508093B502E091B302DB
:101780008091B4022091B5029091B602F0E0EE0F84
:10179000FF1FEE0FFF1FEE0FFF1FE80FF11D84E08C
:1017A000EE0FFF1F8A95E1F7E055FF4FE90FF11D9E
:1017B000E20FF11D808580958FB98091B502882355
:1017C000D1F480E18093B5028091B4028F5F809361
:1017D000B4028091B402883070F01092B40280910B
:1017E000B302882319F481E18093B3028091B3029C
:1017F00081508093B302FF91EF919F918F912F9130
:101800000F900FBE0F901F9018958093B6028CE03A
:101810008093B5021092B40281E08093B302E0910C
:10182000B3028091B4022091B5029091B602F0E02B
:1018300033E0EE0FFF1F3A95E1F7E80FF11D84E06A
:10184000EE0FFF1F8A95E1F7E055FF4FE90FF11DFD
:10185000E20FF11D808580958FB908958FB9779B30
:10186000FECF8FB1089587B38C6387BB8DB1806F36
:101870008DB98DB18C7F8DB9709A08955D9BFECF27
:101880008CB908955F9BFECF8CB15D9BFECF8CB968
:101890000895882311F0579A0895579808958898C5
:1018A000899A88E18AB986E080BD82E08BB910BC54
:1018B00082E289B90895FC0104C05D9BFECF319698
:1018C0008CB980818823C9F70895CF92DF92FF9267
:1018D0000F931F93DF93CF9300D000D000D0CDB7EC
:1018E000DEB78C01F62EDE011196E6E8F2E086E026
:1018F00001900D928150E1F71AC0F8018081382FD4
:1019000032953F708F703A3010F420E301C027E524
:101910008A3010F490E301C097E50F5F1F4F230F4B
:101920002B83980F9C83C601C6DFFA9404C06E0116
:101930000894C11CD11CFF2001F782E892E0BBDFB4
:1019400026960FB6F894DEBF0FBECDBFCF91DF91C4
:101950001F910F91FF90DF90CF900895991B79E030
:1019600004C0991F961708F0961B881F7A95C9F72F
:101970008095089597FB092E07260AD077FD04D09D
:101980002ED006D000201AF4709561957F4F0895EF
:10199000F6F7909581959F4F0895A1E21A2EAA1B04
:1019A000BB1BFD010DC0AA1FBB1FEE1FFF1FA2170F
:1019B000B307E407F50720F0A21BB30BE40BF50B0C
:1019C000661F771F881F991F1A9469F76095709595
:1019D000809590959B01AC01BD01CF010895AA1B94
:1019E000BB1B51E107C0AA1FBB1FA617B70710F00A
:1019F000A61BB70B881F991F5A95A9F7809590953C
:0A1A0000BC01CD010895F894FFCF5A
:101A0A000A0D204320200001C7C0C3D0D3C700D28B
:101A1A00C5D500CFC5D0C5D0DBC200D1CBC8C20066
:101A2A00D230CFCBC8C2C000D1CFC0D1C8C13000DC
:101A3A00C7C8CCCDC8C900C4C8C7C5CBDC000236EC
:101A4A00303902B80126000236303901F70178022E
:101A5A004000200008000200000000000000000012
:101A6A00000000000000000000000000000000006C
:101A7A00000000000000000000000000000000005C
:101A8A00000000000000000000000000000000004C
:101A9A00000000000000000000000000000000003C
:101AAA00000000000000000000000000000000002C
:101ABA00000000000000000000000000000000001C
:101ACA00000000000000000000000000000000000C
:101ADA0000000000000000000000000000000000FC
:101AEA0000000000000000000000000000000000EC
:101AFA0000000000000000000000000000000000DC
:101B0A0000000000000000000000000000000000CB
:101B1A0000000000000000000000000000000000BB
:101B2A0000000000000000000000000000000000AB
:101B3A00000000000000000000000000000000009B
:101B4A00000000000000000000000000000000008B
:101B5A0000000000000000000E00000E36000E6CAF
:101B6A00000EA2000ED8000E0E010E44010E7A01DC
:101B7A000EB0010EE601001C020000000000000089
:101B8A00000000000000000000000000000000004B
:101B9A00000E1C020E5202070000060D00071A0072
:101BAA00062700083400064100074E00075B0007BD
:101BBA0068000975000A8F0007A90007B60006C366
:101BCA00000AD00006F0000EFD00061701092401E4
:101BDA00093E010A5E010978010C920108AC01096B
:101BEA00B90108D30107E00108ED0108FA01090764
:101BFA00020A2102093B020955020775020B8202F9
:101C0A000D9C020ABC020BD60207F00208FD020D67
:101C1A000A03082403083203200A0D003078717180
:0C1C2A002000200A0D00307871712000AD
:00000001FF
