:100000000C941A060C9437060C9437060C94370699
:100010000C9437060C9437060C9437060C9437066C
:100020000C9437060C94CE0F0C9437060C943706BC
:100030000C9437060C9437060C9437060C9437064C
:100040000C94C3130C94A2140C9437060C9437062A
:100050000C9437060C9437060C9437060C9437062C
:100060000C9437060C943706F001FC071C0F0E0E9B
:100070000E0E071E071FC71DE71C771C1F1C0F1C39
:100080000E0E0E0E1E07FC07F001E000F800EE0059
:10009000E700E200E000E000E000E000E000E00057
:1000A000E000E000E000E000FE07FE077C00FE014B
:1000B000C7018203800380038003C001C001E00008
:1000C000700038001C000E000600FF07FF077E00CE
:1000D000FF01C103800380038003C001FC00FC0119
:1000E000C0030007000700070007C003FF017F00EF
:1000F000000F800FC00FE00E600E300E380E180E8D
:100100000C0E060E070EFF3FFF3F000E000E000E06
:10011000000EFF03FF0307000700070007000700AA
:10012000FF00FF03C0070007000700078007C003A8
:10013000FF017F00E007F8073C001E000E000600EC
:100140000700F703FF070F0F070E070E070E0E0E2F
:100150000E07FC03F801FF0FFF0F000E000600075B
:10016000000380038001C001C000E0006000700057
:100170003000380018001C00F801FE070F0F070EB2
:10018000070E0F0E9E07FC01F8039E070E0F070EC9
:10019000070E070E0F0FFE07F801F001FC071E0FF8
:1001A0000F0E071C071C071C071C0E1EFE1FF81D48
:1001B000000C000E00078007FE017E00000000001A
:1001C000000000000000000000183C3C1800000087
:1001D00000001C3C3C3838381C0F0700018003C06D
:1001E00001E00038001C000E0007000E001C007823
:1001F00000E000C00180030001FF07FF07000000CE
:10020000000000FF07FF07020007000E001C007837
:1002100000E000C0018003C001E00070001C000E7F
:1002200000070002000F003F007800E000C001C09E
:1002300001C001C001E001FC007C001C001C001C8E
:1002400000000000000E000E000E00FF7FFF7FE0A8
:1002500000A001B001B001B0031803180318070C87
:10026000060C060C06FE0FFE0F060C071C031803F7
:1002700018FF07FF0707000700070007000700FF38
:1002800001FF070707070E070E070E070E0707FFF8
:1002900003FF00FF01FF038707070707070707871B
:1002A00003FF01FF030707070E070E070E070E07E0
:1002B00007FF03FF00FF03FF030700070007000716
:1002C00000070007000700070007000700070007F6
:1002D00000070007000700F01FF01F701C701C7063
:1002E0001C701C701C701C781C781C381C381C3846
:1002F0001C3C1C1E1CFF7FFF7F07700770077007E8
:1003000070FF03FF0307000700070007000700FF57
:1003100003FF03070007000700070007000700FFAF
:1003200003FF03C7E1CE71CE71CE39DC39DC1DDCB1
:100330001DF80FF80FF81DDC1DDC3DDC39CE39CE81
:1003400071CE71C7E1FE00FF0381070007000700BF
:10035000078003FE01FE038007000E000E000E0062
:100360000E8107FF03FE00070E070F070F870F8799
:100370000F870EC70E470E670E270E370E370E1F5C
:100380000E1F0E0F0E0F0E070E87038703FE01FCD4
:10039000000000070E070F070F870F870F870EC794
:1003A0000E470E670E270E370E370E1F0E1F0E0F4D
:1003B0000E0F0E070E070607078703C701C7006762
:1003C00000770037001F0037007700E700C700C73D
:1003D0000187030707070EF01FF01F701C701C70C9
:1003E0001C701C701C781C381C381C381C381C38BD
:1003F0001C1C1C1E1C0F1C071C0E0E0E1E0E1A1E93
:100400001B1E1B1619B619B618A618E71867180789
:100410001807180738073807380738070E070E0778
:100420000E070E070E070E070EFF0FFF0F070E0732
:100430000E070E070E070E070E070E070EF001F847
:10044000071C0F0E0E0E1E071C071C071C071C079F
:100450001C071C071C0F0E0E0E1E07FC03F001FFED
:100460000FFF0F070E070E070E070E070E070E07EA
:100470000E070E070E070E070E070E070E070E07D4
:100480000EFF01FF038707070E070E070E070E0773
:100490000F8707FF03FF000700070007000700079B
:1004A000000700E007F80F3C081E000E00070007D9
:1004B00000070007000700070007000E000E003CC1
:1004C00008F80FF007FF1FFF1FE000E000E000E06A
:1004D00000E000E000E000E000E000E000E000E01C
:1004E00000E000E000E000030C070E06060E060C1C
:1004F000071C039803B801B001F001E000E00060C0
:1005000000600070003E001E00C001C001F007FC4A
:100510001FDE3DCE79C771C771C771C771C771CF73
:1005200039CE3DFC1FF807C001C0010E381C1C1855
:100530000C380E7007E003E003C001C001E0037057
:10054000077007380E1C1C1C1C0E380770070707A5
:10055000070707070707070707070707070707072B
:100560000707070707070707070707FF1FFF1F0002
:100570001C001C001C001C071C071C071C071C0778
:100580001C071C071C0E1CFE1FF81F001C001C0073
:100590001C001C001C001C001CE71CE71CE71CE7DF
:1005A0001CE71CE71CE71CE71CE71CE71CE71CE733
:1005B0001CE71CE71CE71CFF1FFF1FE71CE71CE7ED
:1005C0001CE71CE71CE71CE71CE71CE71CE71CE713
:1005D0001CE71CE71CE71CE71CFF3FFF3F0038003F
:1005E00038003800383F003F003800380038003805
:1005F000003800F807F81F381C38383838383838D1
:1006000038381CF80FF803071C071C071C071C07C9
:100610001C071C071C7F1CFF1CE71DC71DC71DC72F
:100620001DC71DE71CFF1C3F1C0700070007000734
:1006300000070007000700FF01FF070707070E0775
:100640000E070E070E0707FF03FF00FE00FF0381E2
:1006500007000E000E001C001CFE1FFE1F001C00E9
:100660001C001C000E000E8107FF03FE00870FC751
:100670001FC71DE738E738E738E738FF38FF38E7A6
:1006800038E738E738E738E738C71DC71F870FF066
:100690000FFC0F1C0E0E0E0E0E0E0E0E0E1C0EFC80
:1006A0000FF00F180E0C0E0C0E0E0E060E060E0797
:1006B0000EFC0FFE1FFF3F073807380738073807C3
:1006C0003807380738073807380738073807380732
:1006D0003807380738073807380738073807380722
:1006E00038FF3FFE1FFC0F001000380038003800B4
:1006F000380038003800380038003800380038003A
:100700003800380038003800380038003800380029
:1007100038003800380038003800380010FE0FFF6D
:100720001FFE3F003800380038003800380038001D
:100730003800380038FC3FFE1FFF0F070007000796
:1007400000070007000700070007000700FF1FFE63
:100750003FFC1FFE0FFF1FFE3F003800380038002F
:100760003800380038003800380038FE1FFF1FFE00
:100770001F003800380038003800380038003800D2
:10078000380038FE3FFF1FFE0F02100738073807FA
:100790003807380738073807380738073807380761
:1007A00038FF3FFE3FFC3F0038003800380038007B
:1007B000380038003800380038003800380010FCA5
:1007C0001FFE3FFF1F070007000700070007000785
:1007D00000070007000700FF0FFE1FFC3F00380066
:1007E000380038003800380038003800380038FE4B
:1007F0003FFF1FFE0FFC1FFE3FFF1F070007000704
:1008000000070007000700070007000700FF0FFFB1
:100810001FFF3F07380738073807380738073807FA
:100820003807380738FF3FFE1FFC0FFE0FFF1FFE83
:100830003F003800380038003800380038003800F1
:1008400038003800380038003800380038003800E8
:1008500038003800380038003800380038003800D8
:1008600010FC0FFE1FFF3F0738073807380738070F
:10087000380738073807380738FE1FFE1FFE1F07E6
:100880003807380738073807380738073807380770
:1008900038FF3FFE1FFC0FFC0FFE1FFF3F0738070E
:1008A000380738073807380738073807380738FF58
:1008B0003FFE3FFC3F003800380038003800380069
:1008C00038003800380038FE3FFF1FFE0FFC0FFED7
:1008D0001FFF3F0738071007000700070007000742
:1008E00000070007000700070007000700070007D0
:1008F00000070007000700070007100738FF3FFE4A
:100900001FFC0F1C3E7663636363636363373E1CA7
:100910000E0F0C0C0C0C0C0C0C0C0C3F3F1E7F61D2
:1009200060603030180C06027F7F1E3F3130381E69
:100930001E383030391F0E607078786C6C6663FF3B
:10094000FF6060603F3F0303031F1F383030391FD3
:100950000E1C3E0E07073F7F676767673E1C7F7F61
:100960006030303038181C1C0C0E0E3C7E63636304
:100970003E1E366363637E1C7C00FE00E700C301FD
:10098000C301E701FE01DC01C001C001E2007E00FD
:100990003C0070007000D800D800D800CC008C015A
:1009A0008C01FE01FE010603030303033F3F030323
:1009B000031F3F736363733F1F3F7F6363631F3F87
:1009C000636363637F3F3F3F030303030303030347
:1009D000030303F801F8019801980198019C018C28
:1009E000018C018C0186018601FF03FF03030303D1
:1009F0000303033F3F0303033F3F030303033F3F5F
:100A0000C318C618C60CCC0CDC0EF807F807DC0EB1
:100A1000CC0CCE1CC618C738C3301E3F3130301E38
:100A20001E383030391F0EC301C301E301E301B3A7
:100A300001B3019B019B019F018F018F01870187FA
:100A4000013800C301C301E301E301B301B3019B1A
:100A5000019B019F018F018F0187010000000000B1
:100A600000C301E300E300730033001B001F003BE1
:100A7000007300E300E300C3018303F801F8019869
:100A80000198019C019C018C018C018C018C018ED0
:100A9000018F0187010F0F0F0F0F0F0F0F9F0D9F7A
:100AA0000D9B0D9B0DDB0CF30CF30C730C630CC353
:100AB000C3C3C3C3FFFFC3C3C3C3C3C37800FE0024
:100AC000C6008301830183018301830183018301C4
:100AD000C600FE007C00FFFFC3C3C3C3C3C3C3C3C0
:100AE000C3C3C31F3F736363733F1F030303030346
:100AF00078FC8E070303030303078EFC78FFFF18BF
:100B000018181818181818181818C701C701CE0097
:100B1000EE00EC007C007800380030003000180057
:100B20001F000F003000FC00FE01B6033303330347
:100B300033033303B703FE01FC00300030008701AC
:100B4000C701CE00EE007C007C0038007C007600FF
:100B5000E600E600C301C301C300C300C300C30035
:100B6000C300C300C300C300C300C300C300FF0130
:100B7000FF01800180018001636363636363737FAE
:100B80006E60606060630663066306630663066307
:100B90000663066306630663066306FF07FF0763D3
:100BA0000C630C630C630C630C630C630C630C63CD
:100BB0000C630C630CFF1FFF1F0018001800181FA8
:100BC000001F00180018001800F800F8019803181A
:100BD0000318039803F801F8000303030303030356
:100BE0000303031F033F0373036303630373033FA1
:100BF000031F0303030303031F3F736363733F1F59
:100C00001E3F71E0E0FEFEE0E0E0713F1FC307E33E
:100C10000F630C731833183F183F18331833183309
:100C200018630CE30FC307FCFEC7C3C3C6FCFCCEAE
:100C3000CEC6C7C711241FBECFEFD8E0DEBFCDBFE1
:100C400016E0A0E0B1E0E4E0F2E302C005900D920E
:100C5000AA36B107D9F716E0AAE6B6E001C01D92A0
:100C6000A639B107E1F70E94AC070C9400190C9467
:100C700000001F93982F80916C06811181E0182F3E
:100C8000992301F580E091E00E94831580916C0624
:100C9000873319F480E00E94920C80916C068633B1
:100CA00019F480E00E94260C80916C06843319F4BC
:100CB00080E00E94D30B80916C06823309F072C0F1
:100CC00080E06AC080916B068F3009F068C080E0D8
:100CD00092E0EFE5F2E0DF019C011D9221503040EF
:100CE000E1F788EB9BE020E931E0F9013197F1F77A
:100CF0000197D9F780916C06873319F48FE30E942E
:100D0000920C80916C06863319F48FE30E94260CB6
:100D100080916C06843319F48FE30E94D30B809189
:100D20006C06823319F48FE30E94620B88EB9BE020
:100D300020E931E0F9013197F1F70197D9F780E027
:100D400092E0EFE5F2E0DF019C011D92215030407E
:100D5000E1F788EB9BE020E931E0F9013197F1F709
:100D60000197D9F780916C06873319F48FE30E94BD
:100D7000920C80916C06863319F48FE30E94260C46
:100D800080916C06843319F48FE30E94D30B809119
:100D90006C06823339F48FE30E94620B03C0893101
:100DA00008F010E0812F1F9108951F938823B9F454
:100DB00080E191E00E94831581E0809342010E94CE
:100DC0006C100E940310182F0E940010682F812FB2
:100DD000409142010E94A90A0E94AB101AC0809162
:100DE0006B068C3310F080E015C065E00E945E1841
:100DF000992379F40E940310182F0E940010682F85
:100E0000409142014F5F409342014170812F0E9407
:100E1000A90A81E01F9108951F93882381F481E23C
:100E200091E00E9483150E942911182F0E942F1112
:100E3000682F812F0E94020B0E94571105C090E07D
:100E400080916B06853108F491E0892F1F910895F8
:100E50008DE696E00E941714882311F490E02EC0CE
:100E600080ED97E020E931E0F9013197F1F7019742
:100E7000D9F790916D06903311F480EF03C0923250
:100E800021F480EE80936E0618C0973331F09633CC
:100E900021F0943311F0923341F482E080936E0696
:100EA00010926B0690936C0608C09C3031F410923F
:100EB0006E0610926B0610926C0691E080916E06A1
:100EC000823001F1833028F4882351F08130E9F534
:100ED00010C0803F61F1813FD1F1803EB1F520C06B
:100EE00080916B068F5F80936B0681500E94D506C0
:100EF00011C080916B068F5F80936B0681500E94BA
:100F00000C0708C080916B068F5F80936B06815041
:100F10000E9439068823D9F480916E068F5F10C035
:100F20009923A9F080916D060E94110D06C09923A6
:100F300071F080916D060E94790D882341F48FEF46
:100F400080936E0610926B0602C010926E068DE6BC
:100F500096E00E9417140895CF93DF93A89584B765
:100F6000877F84BF809160008861809360001092C9
:100F7000600088E893E120E931E0F9013197F1F769
:100F80000197D9F70E9472150E94900F0E94300BB2
:100F90000E941F110E9457110E9457110E940D14A8
:100FA000A8952BE088E190E00FB6F894A89580937F
:100FB00060000FBE2093600078948FE291E00E9461
:100FC000831528EE33E0C0E9D1E005C0CE010197DA
:100FD000F1F72150304021153105C1F70E94280753
:100FE00028EE33E0F3CF282FA82FB0E080915502F0
:100FF00090915602A817B90708F05FC0E62FF0E0FD
:101000008091570290915802E817F90708F055C0EF
:10101000269526952695822F90E062956F7070E058
:101020009F012F703070A770B070452B19F1E091BF
:101030005D02F0915E02EE0FFF1FE60FF71F73E0F7
:10104000EE0FFF1F7A95E1F7E80FF91F64E0EE0F4E
:10105000FF1F6A95E1F7EB5AFD4FE20FF31F81E0A6
:1010600090E002C0880F991FAA95E2F72285282BED
:1010700022870895E0915D02F0915E02EE0FFF1F5E
:10108000E60FF71F43E0EE0FFF1F4A95E1F7E80F69
:10109000F91F84E0EE0FFF1F8A95E1F7EB5AFD4F31
:1010A000E20FF31F81E090E002C0880F991FAA951C
:1010B000E2F780952285822382870895CF92DF927E
:1010C000EF92FF920F931F93C62ED42EE22EF02E96
:1010D000082F0AC0802F612F4F2D50E00E94F30788
:1010E0001F5F1E15B8F30F5F0D1510F41C2DF9CFFF
:1010F0001F910F91FF90EF90DF90CF9008959F92F6
:10110000AF92BF92CF92DF92EF92FF920F931F9315
:10111000CF93DF93E82EF62E942EA22EB02E022F20
:10112000061B142F181B000F110F4B2D50E00E94AF
:10113000F3070117D8F4C02EDD24812F8695E60130
:10114000C81BD109012F10E00EC0D7FD03C0F394D6
:10115000C01BD10BE394CC0DDD1D8E2D6F2D4B2DBF
:1011600050E00E94F307E91481F719C0C12EDD2475
:10117000802F8695E601C81BD10910E00EC0D7FD6F
:1011800003C0E394C01BD10BF394CC0DDD1D8E2D59
:101190006F2D4B2D50E00E94F307FA1481F7DF9179
:1011A000CF911F910F91FF90EF90DF90CF90BF9064
:1011B000AF909F9008956F927F928F929F92AF927F
:1011C000BF92CF92DF92EF92FF920F931F93CF9334
:1011D000DF93862E942E99E0899F700111248AE373
:1011E00092E0E80EF91E30E0C901C0976C01CC0C0A
:1011F000DD1CC80ED91ED7011596ED91FC911697EE
:101200008F010C0D1D1DD8018C9190E0019768E0B5
:1012100070E00E946A186F5FD7016C932F523040C4
:10122000C901880F991F820F931FE80FF91F818151
:10123000F8019181891B11968C9300E010E0C0E0C9
:10124000D0E081E0682E712C35C0D7011596ED9164
:10125000FC911697EC0DFD1D81819281800F911FED
:101260001796ED91FC911897E80FF91FA590B4908F
:10127000C0E0D0E00FC0A3010C2E02C0440F551FE8
:101280000A94E2F74A215B21882D8C0F692D0E9478
:10129000F3072196D7011596ED91FC911697EC0D69
:1012A000FD1D808190E0C817D9072CF393948C9191
:1012B000080F111DF701818190E0081719072CF222
:1012C00000E010E0D82CDC0E09C09A948D2D692D19
:1012D00040E050E00E94F3070F5F1F4FD7016C9171
:1012E00011968C9111970E945E1890E008171907CB
:1012F00064F314968C919E01280F311DC901DF9172
:10130000CF911F910F91FF90EF90DF90CF90BF9002
:10131000AF909F908F907F906F900895662311F407
:1013200080E0089590E0FC0173E0EE0FFF1F7A95D6
:10133000E1F7E80FF91FE65CFD4F862F90E0C097BC
:101340009C01220F331F280F391F0580F681E02DE5
:10135000E20FF31F8081089590E0FC01A3E0EE0FFF
:10136000FF1FAA95E1F7E80FF91FE65CFD4F8481A6
:101370000895BF92CF92DF92EF92FF920F931F9347
:101380006C018B01B42E50E00E94F30776010894A3
:10139000E11CF11C8E2D602F4B2D50E00E94F307B5
:1013A0000F5F1F4F8E2D602F4B2D50E00E94F307D3
:1013B0008C2D602F4B2D50E00E94F3071F910F9151
:1013C000FF90EF90DF90CF90BF9008950F931F9301
:1013D00010E0882309F411E084E06BE044E024E1AC
:1013E000012F0E947F0885E06BE045E024E10E9428
:1013F0007F0880E06FE049E02FE001E00E947F0875
:1014000080E060E149E020E10E947F081F910F9198
:1014100008950F931F93082F162F862F6AE00E94BE
:101420005E18282F205D802F60E042E00E94DB08DC
:10143000812F6AE00E945E18905D802F60E142E09B
:10144000292F0E94DB081F910F9108950F931F937E
:10145000082F162F862F6AE00E945E18282F205D25
:10146000802F62E242E00E94DB08812F6AE00E9446
:101470005E18905D802F62E342E0292F0E94DB0816
:101480001F910F9108950F931F93182F8FE168E01C
:101490004FE12AE0012F0E947F0880E268E040E2ED
:1014A0002AE00E947F088FE165E14FE127E10E9479
:1014B0007F0880E265E140E227E10E947F081F91FA
:1014C0000F910895FF920F931F93182FF62E262F3A
:1014D0002E5F482F445F622F01E00E947F082F2D6E
:1014E0002F5F412F465F812F8E5F622F0E947F0802
:1014F000412F485F812F8C5F6F2D2F2D0E947F0819
:10150000812F8B5F6F2D195F412F2F2D0E947F0838
:101510001F910F91FF90089520E030E080915D02CF
:1015200090915E02892B11F421E030E030935E024D
:1015300020935D02922F88270A968B5A9D4FFC01BB
:1015400080E091E0DF019C011D9221503040E1F7E5
:1015500008950F931F93982F162F042F80E0692F63
:101560000E94090A80E0612F0E94260A802F0E94B3
:10157000430A0E948C0A1F910F910895FF920F93C6
:101580001F93182F062FF42E862F6AE00E945E18F4
:10159000282F205D812F6BE042E00E94DB08802F26
:1015A0006AE00E945E18905D812F6CE142E0292F75
:1015B0000E94DB08812F62E342E023E40E94DB0803
:1015C0008DE263E04FE223E001E00E947F088DE2BC
:1015D00068E04FE228E00E947F088CE264E04CE281
:1015E00027E00E947F0880E364E040E327E00E9458
:1015F0007F088F2D0E94E6090E948C0A1F910F918F
:10160000FF900895982F462F80E0692F0E94BE0A10
:101610000895DF92EF92FF920F931F93CF93DF9382
:10162000D82E162FF42EE9012881222369F0203CC0
:1016300008F026588D2D612F4F2D0E94DB08015098
:1016400019F0180F2196F0CFEE2011F00E948C0AAD
:10165000DF91CF911F910F91FF90EF90DF90089550
:10166000EF920F93DF93CF93CDB7DEB727970FB6E7
:10167000F894DEBF0FBECDBFDE011196E9EDF1E0BB
:1016800087E001900D928150E1F781E068E048E049
:101690009E012F5F3F4F07E0EE24E3940E94090B69
:1016A0008CE390E061E170E041E00E94B909279687
:1016B0000FB6F894DEBF0FBECDBFCF91DF910F9173
:1016C000EF9008956F927F928F929F92AF92BF9208
:1016D000CF92DF92EF920F931F93DF93CF93CDB70B
:1016E000DEB72E970FB6F894DEBF0FBECDBF182F12
:1016F000DE011196E0EEF1E087E001900D9281505D
:10170000E1F7DE011896E7EEF1E087E001900D9237
:101710008150E1F782E080934702CC24DD24A12EA2
:10172000BB243E010894611C711C08E0802E912CA2
:101730008C0E9D1E1BC081E060E042E0930107E03B
:10174000EE240E94090B81E063E041E194010E94D4
:10175000090B812F8C0D60E040E420E200E00E9444
:101760005E080E948C0A0894C11CD11CC6018A0D17
:101770009B1D80349105FCF281E0809347022E96F8
:101780000FB6F894DEBF0FBECDBFCF91DF911F9192
:101790000F91EF90DF90CF90BF90AF909F908F9080
:1017A0007F906F9008958F929F92AF92BF92CF9249
:1017B000DF92EF920F931F93DF93CF93CDB7DEB7F6
:1017C00028970FB6F894DEBF0FBECDBF182FDE01ED
:1017D0001196EEEEF1E088E001900D928150E1F774
:1017E000CC24DD24A12EBB244E010894811C911C25
:1017F00015C081E060E049E0940108E0EE240E9419
:10180000090B812F8C0D60E040E420E200E00E9493
:101810005E080E948C0A0894C11CD11CC6018A0D66
:101820009B1D803491052CF328960FB6F894DEBFEB
:101830000FBECDBFCF91DF911F910F91EF90DF9041
:10184000CF90BF90AF909F908F9008956F927F92AE
:101850008F929F92AF92BF92CF92DF92EF920F93AF
:101860001F93DF93CF93CDB7DEB72D970FB6F894C4
:10187000DEBF0FBECDBF182FDE011196E6EFF1E0FF
:1018800085E001900D928150E1F7DE011696EBEFB5
:10189000F1E088E001900D928150E1F7CC24DD2445
:1018A000A12EBB243E010894611C711C86E0882E89
:1018B000912C8C0E9D1E1CC081E060E142E09301E2
:1018C00005E0EE240E94090B81E060E041E1940113
:1018D00008E00E94090B812F8C0D60E040E420E2BB
:1018E00000E00E945E080E948C0A0894C11CD11C72
:1018F000C6018A0D9B1D80349105F4F22D960FB61A
:10190000F894DEBF0FBECDBFCF91DF911F910F9135
:10191000EF90DF90CF90BF90AF909F908F907F908F
:101920006F9008956F927F928F929F92AF92BF9225
:10193000CF92DF92EF92FF920F931F93DF93CF939B
:10194000CDB7DEB72C970FB6F894DEBF0FBECDBF74
:10195000182F8091030290910402A0910502B0918A
:10196000060289839A83AB83BC83DE011596E7E088
:10197000F2E088E001900D928150E1F7CC24DD2463
:10198000A12EBB2422E0F22E3E010894611C711CA2
:1019900095E0892E912C8C0E9D1E28C0F092470256
:1019A00081E062E142E0930104E0EE240E94090B31
:1019B0008FE290E06DE070E041E00E94B90981E0C3
:1019C00060E041E1940108E00E94090B81E080930E
:1019D0004702812F8C0D60E040E420E200E00E948D
:1019E0005E080E948C0A0894C11CD11CC6018A0D95
:1019F0009B1D8034910594F22C960FB6F894DEBFAF
:101A00000FBECDBFCF91DF911F910F91FF90EF904F
:101A1000DF90CF90BF90AF909F908F907F906F900E
:101A20000895EF920F931F93823299F480E092E031
:101A3000EFE5F2E0DF019C011D9221503040E1F71B
:101A400080E10E94FB1180935F048531E0F08AE021
:101A500018C08B3339F480E160915F040E94211239
:101A600010E012C0803231F480915F04833158F469
:101A70008F5F07C0813239F480915F04823018F0A3
:101A8000815080935F0411E000915F0480E00A3090
:101A900008F481E00E94E60980E06BE042E020E388
:101AA0000E94DB080A3038F0802F6AE00E945E183E
:101AB000292F205D02C02AE3201B80E06CE142E078
:101AC0000E94DB0881E06DE241E12FE032E001E0BD
:101AD000EE240E94090B86E390E06CE170E041E0A7
:101AE0000E94B9090E948C0A812F1F910F91EF90DB
:101AF00008951F93682F8033C1F48FEF809374068D
:101B0000809373068093720680937106109270061C
:101B100010926F0680E092E0EFE5F2E0DF019C01B9
:101B20001D9221503040E1F752C08A3008F04FC07A
:101B300080916F0690917006009741F4633008F031
:101B400046C06093710681E090E017C08130910536
:101B500059F480917106823011F46430C0F56093BD
:101B6000720682E090E009C08230910559F4663037
:101B700070F56093730683E090E090937006809315
:101B80006F0625C083309105F1F46093740684E0FC
:101B900090E09093700680936F06209171069AE012
:101BA000299F9001112480917206820F8093710603
:101BB00020917306299F90011124620F6093730690
:101BC0000E94341002C0049714F010E001C011E02C
:101BD00081E00E94430A209171062F3F39F481E091
:101BE00090E06AE170E00E94620A06C0205D80E039
:101BF00060E042E00E94DB08209172062F3F39F43A
:101C000081E190E06AE170E00E94620A06C0205D16
:101C100080E060E142E00E94DB08209173062F3FE4
:101C200039F481E290E06AE170E00E94620A06C045
:101C3000205D80E062E242E00E94DB0820917406B1
:101C40002F3F39F483E390E06AE170E00E94620A7A
:101C500006C0205D80E062E342E00E94DB080E9453
:101C60008C0A812F1F9108952F923F924F925F927D
:101C70006F927F928F929F92AF92BF92CF92DF929C
:101C8000EF92FF920F931F93DF93CF93CDB7DEB701
:101C90002A970FB6F894DEBF0FBECDBF882EDE01A7
:101CA0001596E4E3F2E086E001900D928150E1F7B1
:101CB00086E0898381E192E00E948315CE0101963E
:101CC00061E070E00E9490151C821B821A828E01D6
:101CD0000B5F1F4F6801BBE02B2E312C2C0E3D1EDD
:101CE000282D30E0C901A3E0880F991FAA95E1F7DC
:101CF000820F931F865C9D4FF5E06F2E712C680E4E
:101D0000791EE4E0AE2EB12CA80EB91E73E0472E6A
:101D1000512C4C0E5D1E32C0D6018C91882311F4DB
:101D2000E0E00DC090E0C0979C01220F331F280F08
:101D3000391FD301ED91FC91E20FF31FE081D50132
:101D40008C91480F511D4E0F511D5C834B838BE1CD
:101D500092E00E948315C20162E070E00E9490153B
:101D60008B819C818F34910534F08A81882319F40A
:101D70008C2D801B8A830894C11CD11C4B815C81F3
:101D8000C214D30449F6405C5F4F5C834B838BE104
:101D900092E00E948315CE01039662E070E00E94FB
:101DA000901588E292E00E948315CE01029661E0D0
:101DB00070E00E9490152D812223D1F0882D90E0B3
:101DC000FC0113E0EE0FFF1F1A95E1F7E80FF91F72
:101DD000E65CFD4F822F90E0C0979C01220F331FDD
:101DE000280F391F0580F681E02DE20FF31F2081B7
:101DF000882D90E0FC01A3E0EE0FFF1FAA95E1F70C
:101E0000E80FF91FE65CFD4F9480920E662477245C
:101E1000AA24BB2470E4C72ED12C64E0262E312CDA
:101E20002E0E3F1E55E0452E512C4E0E5F1E59C002
:101E3000D7FE3BC0B601882777FD8095982F0E947A
:101E40000B167B018C01E89417F9692D70E0882747
:101E500077FD8095982F0E940B169B01AC01C8015D
:101E6000B7010E94DB15882304F10894A11CB11C62
:101E7000E5E0F0E0EC0FFD1FEA0DFB1D80818823FB
:101E800011F4E0E00DC090E0C0979C01220F331FD9
:101E9000280F391FD201ED91FC91E20FF31FE08171
:101EA000D1019C909E0ECC24DD2425E030E02C0F47
:101EB0003D1F2A0D3B1D882D6C2D40E00A81EE242C
:101EC000E3940E94090B88EC90E0E0E9F1E031979F
:101ED000F1F70197D1F70894C108D1080894611C63
:101EE000711C8B819C81681679060CF4A1CF2A960F
:101EF0000FB6F894DEBF0FBECDBFCF91DF911F911B
:101F00000F91FF90EF90DF90CF90BF90AF909F9098
:101F10008F907F906F905F904F903F902F9008959B
:101F2000399A389A219A3A9A0E94431586E080930A
:101F3000B100E0E7F0E080818160808380E092E0A2
:101F4000EFE5F2E0DF019C011D9221503040E1F706
:101F500008954298299A299880917506813049F010
:101F6000813028F0823039F0833051F407C0409836
:101F700003C0409804C0409A419802C0409A419AD8
:101F8000429A8F5F80937506843010F01092750628
:101F90008091750690E00E94041508951F920F929B
:101FA0000FB60F9211242F933F934F935F936F932C
:101FB0007F938F939F93AF93BF93EF93FF930E9471
:101FC000A90F809176068F5F8093760681508A31C3
:101FD00018F0A89510927606FF91EF91BF91AF91FE
:101FE0009F918F917F916F915F914F913F912F9131
:101FF0000F900FBE0F901F9018958091780608954E
:1020000080917906089580917A060895482F6AE0B4
:102010000E945E18282F30E084E0220F331F8A953B
:10202000E1F7842F0E945E18892F820F0895282FD0
:1020300022952F709AE0299F900111248F70820FB2
:1020400008950F931F93182F062F80ED60E00E94D4
:102050003F12812F0E948912802F0E9489120E94B4
:1020600079121F910F9108958831E0F46C33D0F408
:10207000109278066093790680937A0680E060E09B
:102080000E942110809179060E940610682F81E03D
:102090000E94211080917A060E940610682F82E02B
:1020A0000E94211008951F93182F80ED60E00E9478
:1020B0003F12812F0E9489120E94791280ED61E007
:1020C0000E943F120E94A312182F0E94B5120E9474
:1020D0007912812F1F91089580E00E9453100E9471
:1020E00017108093780681E00E9453100E94171009
:1020F0008093790682E00E945310282F30E0482F09
:102100004F7086FF12C020723070A5E0359527957C
:10211000AA95E1F7C901880F991F820F931F880FB5
:10212000991F880F991F480F13C0C90180739070C1
:1021300074E0959587957A95E1F79C0163E0220F0D
:10214000331F6A95E1F7880F991F280F391F420F37
:1021500040937A060895DF93CF9300D0CDB7DEB7D2
:1021600080917A06833009F053C0809179068130DE
:1021700009F04EC080E00E9453100E9417108A831D
:1021800080E295E00E948315CE01029661E070E046
:102190000E9490158A8180518D31E0F580E395E0B1
:1021A0000E94831587E796E061E070E00E94901539
:1021B00080917706882371F580E10E94FB11898365
:1021C00089E395E00E948315CE01019661E070E0FD
:1021D0000E9490159981892F82508231A8F48A81BA
:1021E000980F9A509A838A810E940610682F80E087
:1021F0000E94211083E495E00E948315CE0102968F
:1022000061E070E00E94901581E08093770602C043
:10221000109277060F900F90CF91DF9108951F9342
:10222000182F80E00E945310682F112311F06F7750
:1022300001C0606880E00E9421101F91089560E550
:1022400073EC80E090E00E94251281E00E940F1163
:10225000089580917D06089580917E06089580916D
:102260007F0608951F93182F0E94C712812F0E9486
:1022700021131F91089510927B0681E00E94321174
:102280008823A1F080E896E061E00E94721380E864
:1022900096E068E070E00E949F13882339F481E0A3
:1022A00080937B068091800680937C060895CF936F
:1022B000DF9380917B06813009F067C00E94211373
:1022C0008CEC61E00E94411384E461E00E944113C0
:1022D00080E197E220E931E0F9013197F1F70197C8
:1022E000D9F781E00E9421138CEC61E00E94411338
:1022F0008EEB61E00E944113C0E8D6E081E00E94CD
:102300005913899386E0C938D807C1F7CE010997D8
:1023100069E070E00E949F138823C9F590918106BF
:10232000892F807880937F06882341F080918006F2
:1023300080958093800690959093810680917C068D
:10234000803149F490918006892F869580937D068F
:1023500090FF15C016C0883211F08232B1F480911E
:102360008006209181062295207F382F32953F707C
:10237000232B20937D0690E0019683FD02C080E030
:1023800001C085E080937E0602C00E943B11DF9170
:10239000CF910895EF92FF920F931F938C010E94AB
:1023A000EA18E82EC80180589F4F0E94EA18F82EBC
:1023B000C80180509F4F0E94EA189F2D9695F0FE0D
:1023C00003C0292F206801C0292F982F969580FDE2
:1023D0009068892F869590FF03C0982F906801C060
:1023E000982F892F822B8E219223892B1F910F9159
:1023F000FF90EF90089590E00E94CA1108951F93F6
:10240000CF93DF93EC01162F0E94F218612F660F15
:1024100017FF03C0162F116001C0162FCE01805880
:102420009F4F612F0E94F218612F660F17FD6160A8
:10243000CE0180509F4F0E94F218DF91CF911F91E3
:10244000089590E00E94FF1108959B01AC0160E0A7
:1024500074E284EF90E00E947D18205130404040AB
:10246000504056954795379527952093B800809111
:10247000B80090E08B3008F091E0892F0895982FF4
:1024800084EA8093BC0028EE33E005C021153105B5
:1024900031F0215030408091BC0087FFF7CF809110
:1024A000B900887F883021F0803111F090E01FC0A2
:1024B000690F6093BB0084E88093BC0028EE33E092
:1024C00005C02115310531F0215030408091BC000C
:1024D00087FFF7CF8091B900887F883111F491E0B0
:1024E00006C090E0803409F091E081E09827892FC0
:1024F000089584E98093BC0028EE33E005C02115DF
:10250000310531F0215030408091BC0084FDF7CF7F
:1025100008958093BB0084E88093BC0028EE33E0EC
:1025200005C02115310531F0215030408091BC00AB
:1025300087FFF7CF8091B90090E0887F883209F05B
:1025400091E0892F089584EC8093BC0028EE33E05D
:1025500005C02115310531F0215030408091BC007B
:1025600087FFF7CF8091BB00089584E88093BC007B
:1025700028EE33E005C02115310531F021503040FF
:102580008091BC0087FFF7CF8091BB00089524B1F4
:10259000982F9095922394B995B1982B95B980E88E
:1025A00097E00197F1F70895F89494B1982B94B9B6
:1025B00095B1282F2095922395B990E29A95F1F73D
:1025C00094B1292324B995B1982B95B980E091E075
:1025D0000197F1F778940895F89494B1982B94B9F1
:1025E00095B1282F2095922395B9E0EFF0E031972F
:1025F000F1F794B1292324B995B1982B95B985E3C6
:102600008A95F1F778940895F89494B1982B94B939
:1026100095B1282F2095922395B990E29A95F1F7DC
:1026200094B1292324B995B1982B95B990E39A9543
:10263000F1F793B1ECEDF0E03197F1F7789489235D
:102640000895F89494B1982B94B995B1282F2095BA
:10265000922395B9E0E8F7E03197F1F794B1292397
:1026600024B995B1982B95B9E8ECF0E03197F1F7E2
:1026700093B1E8EBF6E03197F1F7789490958923E0
:102680000895FF920F931F93082FF62E10E000FF7E
:1026900004C08F2D0E94D41203C08F2D0E94EC1213
:1026A0001F5F183011F00695F2CF1F910F91FF9028
:1026B0000895FF920F931F93F82E10E000E01695F7
:1026C0008F2D0E940413811110680F5F0830B9F735
:1026D000812F1F910F91FF900895682F8CEC0E941D
:1026E000411308950F931F93CF93DF93EC01062FAF
:1026F00083E30E94411318E0802F0E9459138993AD
:102700001150D1F7DF91CF911F910F9108950F9341
:102710001F93CF93DF93EC01062F85E50E944113B1
:1027200018E08991602F0E9441131150D1F7DF9179
:10273000CF911F910F9108958091890608951F935D
:10274000FC0140E050E090E018E117C0A08120E0DB
:1027500030E08A2F8927B82FB17080FD9127969598
:10276000B13009F490682F5F3F4F2830310511F0E8
:10277000A695EFCF31964F5F5F4F4617570734F35B
:10278000892F1F9108951F920F920FB60F92112457
:102790002F933F934F938F939F9320918E06309169
:1027A0008F0688EF86BD49B180918D068F5F80933B
:1027B0008D06823150F036FD06C035FF04C03093DF
:1027C0008C0620938B0620E030E0909190064927FC
:1027D00047FF15C0909590939006863018F420E03E
:1027E00030E005C02115310511F08C3040F036FD88
:1027F00002C0220F331F97FF216010928D06309385
:102800008F0620938E069F918F914F913F912F912C
:102810000F900FBE0F901F90189557985F9A84E005
:1028200085BDEEE6F0E08081816080830895FC0143
:10283000F89480918B0690918C0610928C061092E1
:102840008B067894009711F480E008958F7380834D
:1028500081E0089508953B9A282F2095F8949AE0F6
:1028600087E8089410F4439802C0439A00000E943D
:102870003F140E943F1426959A95A1F704C0182E84
:102880001A94F1F70895439A789480ED97E00197B0
:10289000F1F70895CF93DF93EC0103C021960E94D6
:1028A0002B1488818823D1F7DF91CF910895CF929F
:1028B000DF92FF920F931F93DF93CF9300D000D04E
:1028C00000D0CDB7DEB78C01F62EDE011196EAE519
:1028D000F5E086E001900D928150E1F71BC0F80110
:1028E0008081382F32953F708F703A3010F420E39A
:1028F00001C027E58A3010F490E301C097E50F5F2F
:102900001F4F230F2B83980F9C83C6010E944A14EC
:10291000FA9404C06E010894C11CD11CFF20F9F682
:1029200086E595E00E944A1426960FB6F894DEBF1D
:102930000FBECDBFCF91DF911F910F91FF90DF9020
:10294000CF9008951F920F920FB60F9211242F93DC
:102950003F938F939F93EF93FF93809191068031E4
:1029600009F447C080919406845080939406E091C6
:102970009306809191069091920630919406209151
:102980009506F0E0EE0FFF1FE80FF11D83E0EE0F5C
:10299000FF1F8A95E1F7E90FF11D84E0EE0FFF1F9D
:1029A0008A95E1F7EB5AFD4FE20FF11DE30FF11DA0
:1029B000828580958EBD809194068823D1F480E134
:1029C00080939406809192068F5F80939206809107
:1029D0009206883070F010929206809191068823BA
:1029E00019F481E180939106809191068150809342
:1029F0009106FF91EF919F918F913F912F910F90B1
:102A00000FBE0F901F901895809395068CE08093D1
:102A100094061092920681E08093910620E08091C6
:102A20005D0290915E02892B09F421E020939306C8
:102A3000E0919306809191069091920630919406D0
:102A400020919506F0E0EE0FFF1FE80FF11D43E027
:102A5000EE0FFF1F4A95E1F7E90FF11D84E0EE0F3D
:102A6000FF1F8A95E1F7EB5AFD4FE20FF11DE30FCF
:102A7000F11D828580958EBD08958EBD0DB407FE33
:102A8000FDCF8EB5089584B18C6384B98CB5806F09
:102A90008CBD8CB58C7F8CBD8DB581608DBD08954E
:102AA000982F8091C00085FFFCCF9093C6000895B9
:102AB0008091C00087FFFCCF9091C6008091C0003C
:102AC00085FFFCCF9093C600892F0895882321F0BD
:102AD0008091C100806803C08091C1008F7780938E
:102AE000C10008955098519A88E18093C10086E012
:102AF0008093C20082E08093C0001092C50082E201
:102B00008093C4000895FC0107C08091C00085FF38
:102B1000FCCF31969093C60090819923B1F7089528
:102B2000CF92DF92FF920F931F93DF93CF9300D04A
:102B300000D000D0CDB7DEB78C01F62EDE011196A5
:102B4000E4E6F5E086E001900D928150E1F71BC0CC
:102B5000F8018081382F32953F708F703A3010F431
:102B600020E301C027E58A3010F490E301C097E527
:102B70000F5F1F4F230F2B83980F9C83C6010E946A
:102B80008315FA9404C06E010894C11CD11CFF2067
:102B9000F9F680E695E00E94831526960FB6F89424
:102BA000DEBF0FBECDBFCF91DF911F910F91FF9080
:102BB000DF90CF900895A8E1B0E0E1EEF5E10C944C
:102BC000BF1869837A838B839C832D833E834F83D5
:102BD000588789E0E82EF12CEC0EFD1ECE010196FF
:102BE000B7010E948D178E010F5E1F4FCE01059613
:102BF000B8010E948D178985823040F08989823022
:102C000028F0C701B8010E94051801C08FEF68962F
:102C1000E6E00C94DB18A8E0B0E0E1E1F6E10C940A
:102C2000BC189B01AC0183E08983DA01C9018827C4
:102C3000B7FD83959927AA27BB27B82E2115310503
:102C40004105510519F482E089833AC08823A9F02F
:102C5000203080E0380780E0480780E8580729F4F2
:102C600060E070E080E09FEC30C0EE24FF2487013C
:102C7000E21AF30A040B150B02C079018A018EE1F6
:102C8000C82ED12CDC82CB82ED82FE820F83188786
:102C9000C801B7010E94691601971816190684F435
:102CA000082E04C0EE0CFF1C001F111F0A94D2F75F
:102CB000ED82FE820F831887C81AD90ADC82CB8284
:102CC000BA82CE0101960E94B8162896E9E00C94CB
:102CD000D818EF92FF920F931F937B018C0180E035
:102CE000E81680E0F80681E0080780E0180788F41D
:102CF0008FEFE816F1040105110531F028F088E0A6
:102D000090E0A0E0B0E017C080E090E0A0E0B0E08C
:102D100012C080E0E81680E0F80680E0080781E055
:102D2000180728F088E190E0A0E0B0E004C080E15E
:102D300090E0A0E0B0E020E230E040E050E0281B6E
:102D4000390B4A0B5B0B04C016950795F794E79473
:102D50008A95D2F7F701E659FA4F8081281B31098D
:102D600041095109C9011F910F91FF90EF900895FA
:102D7000DF92EF92FF920F931F93FC01E480F580A6
:102D800006811781D1808081823048F480E090E014
:102D9000A0E1B0E0E82AF92A0A2B1B2BA5C0843059
:102DA00009F49FC0823021F4EE24FF24870105C07E
:102DB000E114F1040105110519F4E0E0F0E096C01A
:102DC000628173819FEF623879070CF05BC022E863
:102DD0003FEF261B370B2A3131052CF020E030E085
:102DE00040E050E02AC0B801A701022E04C0769549
:102DF0006795579547950A94D2F781E090E0A0E057
:102E0000B0E004C0880F991FAA1FBB1F2A95D2F7F4
:102E10000197A109B1098E219F21A023B123009719
:102E2000A105B10521F081E090E0A0E0B0E09A01B9
:102E3000AB01282B392B4A2B5B2BDA01C9018F7789
:102E40009070A070B07080349105A105B10539F47F
:102E500027FF09C0205C3F4F4F4F5F4F04C0215CEC
:102E60003F4F4F4F5F4FE0E0F0E02030A0E03A07E7
:102E7000A0E04A07A0E45A0710F0E1E0F0E0790191
:102E80008A0127C06038710564F5FB01E158FF4FE6
:102E9000D801C7018F779070A070B0708034910511
:102EA000A105B10539F4E7FE0DC080E490E0A0E093
:102EB000B0E004C08FE390E0A0E0B0E0E80EF91EBF
:102EC0000A1F1B1F17FF05C016950795F794E79477
:102ED000319687E016950795F794E7948A95D1F790
:102EE00005C0EE24FF248701EFEFF0E06E2F679519
:102EF00066276795902F9F77D794DD24D7948E2FE0
:102F00008695492F462B582F5D29B701CA011F917D
:102F10000F91FF90EF90DF900895FC01DB0140815D
:102F200051812281622F6F7770E0221F2227221F9A
:102F30009381892F880F822B282F30E0991F9927A2
:102F4000991F11969C93119721153105A9F54115EB
:102F500051056105710511F482E037C082E89FEFE9
:102F600013969C938E9312979A01AB0167E0220F00
:102F7000331F441F551F6A95D1F783E08C930DC012
:102F8000220F331F441F551F12968D919C9113974A
:102F9000019713969C938E931297203080E0380708
:102FA00080E0480780E4580758F314962D933D932A
:102FB0004D935C93179708952F3F310579F4411590
:102FC00051056105710519F484E08C93089564FF3F
:102FD00003C081E08C9312C01C9210C02F57304068
:102FE00013963C932E93129783E08C9387E0440FC3
:102FF000551F661F771F8A95D1F7706414964D93FD
:103000005D936D937C93179708951F93DC01FB01EB
:103010009C91923008F447C08081823008F443C00C
:10302000943051F411961C91843099F58181682F68
:1030300070E0611B71093FC0843021F0923031F49F
:103040008230B9F18181882389F12DC011961C91BC
:1030500011978230F1F081811817D9F412962D91D1
:103060003C911397828193818217930794F02817DC
:103070003907BCF014968D919D910D90BC91A02DB7
:103080002481358146815781281739074A075B0714
:1030900018F4112341F00AC082179307A407B5075B
:1030A00040F4112319F061E070E005C06FEF7FEF8D
:1030B00002C060E070E0CB011F910895991B79E098
:1030C00004C0991F961708F0961B881F7A95C9F7B8
:1030D0008095089597FB092E07260AD077FD04D026
:1030E0002ED006D000201AF4709561957F4F089578
:1030F000F6F7909581959F4F0895A1E21A2EAA1B8D
:10310000BB1BFD010DC0AA1FBB1FEE1FFF1FA21797
:10311000B307E407F50720F0A21BB30BE40BF50B94
:10312000661F771F881F991F1A9469F7609570951D
:10313000809590959B01AC01BD01CF010895AA1B1C
:10314000BB1B51E107C0AA1FBB1FA617B70710F092
:10315000A61BB70B881F991F5A95A9F780959095C4
:10316000BC01CD0108952F923F924F925F926F92D2
:103170007F928F929F92AF92BF92CF92DF92EF9207
:10318000FF920F931F93CF93DF93CDB7DEB7CA1B88
:10319000DB0B0FB6F894DEBF0FBECDBF09942A88B3
:1031A000398848885F846E847D848C849B84AA845B
:1031B000B984C884DF80EE80FD800C811B81AA81E8
:1031C000B981CE0FD11D0FB6F894DEBF0FBECDBFB3
:1031D000ED010895F999FECF92BD81BDF89A992726
:1031E00080B50895262FF999FECF1FBA92BD81BDF3
:1031F00020BD0FB6F894FA9AF99A0FBE0196089579
:04320000F894FFCF70
:103204000A0D20546578742055706461746520003B
:103214000A0D20436C6F636B2055706461746520E4
:10322400000A0D20526561642054656D7020000A07
:103234000D20475320436C6F636B2076332E30325E
:103244002000010D00000B22000B44000B66000E51
:1032540088000BAA000CCC000CEE000C10010D32FF
:10326400010454010661010A73010B91010A9F01D3
:1032740009BD010FE3010DE7010C09020C2B020A41
:103284004D020F6F020A990210BB020CDD020CFF03
:10329400020C21030C4D030D6F030E91030CB303B9
:1032A4000DD5030CF7030C19040C3B040D5D040C41
:1032B4007F040FA1040FC3040DE5040D0F050D31A8
:1032C400050E53050E7D050D9F050CC1050DE30587
:1032D4000E05060C27060C3306C7C0C3D0D3C7009F
:1032E400C7C8CCCDC8C900C4C8C7C5CBDC00D1CFC2
:1032F400C0D1C8C13000D1CBC8C200D230CFCBC8F6
:10330400C2C000D2C5D500CFC5D0C5D0DBC200D164
:10331400000A0D2073697A652020000A0D20737459
:103324007273697A652020000A0D207374726C65CB
:103334006E202000313233343500023630390260D9
:1033440004B106021C3039019F04030902283039F4
:103354000243016800400020000800020000000051
:103364000000000000000000000000000000000059
:103374000000000000000000000000000000000049
:103384000000000000000000000000000000000039
:103394000000000000000000000000000000000029
:1033A4000000000000000000000000000000000019
:1033B4000000000000000000000000000000000009
:1033C40000000000000000000000000000000000F9
:1033D40000000000000000000000000000000000E9
:1033E40000000000000000000000000000000000D9
:1033F40000000000000000000000000000000000C9
:1034040000000000000000000000000000000000B8
:1034140000000000000000000000000000000000A8
:103424000000000000000000000000000000000098
:103434000000000000000000000000000000000088
:103444000000000000000000000000000000000078
:103454000000000000000000000000000000000068
:103464000000000000000000000000000000000058
:103474000000000000000000000000000000000048
:103484000000000000000000000000000000000038
:103494000000000000000000000000000000000028
:1034A4000000000000000000000000000000000018
:1034B4000000000000000000000000000000000008
:1034C40000000000000000000000000000000000F8
:1034D40000000000000000000000000000000000E8
:1034E40000000000000000000000000000000000D8
:1034F40000000000000000000000000000000000C8
:1035040000000000000000000000000000000000B7
:1035140000000000000000000000000000000000A7
:103524000000000000000000000000000000000097
:103534000000000000000000000000000000000087
:103544000000000000000000000000000000000077
:103554000000000000000000000000000000000A5D
:103564000E00000E36000E6C000EA2000ED8000EE7
:103574000E010E44010E7A010EB0010EE601001C8C
:103584000200000000000000000000000000000035
:103594000000000000000000000E1C020E52020792
:1035A4000000060D00071A00062700083400064133
:1035B40000074E00075B000768000975000A8F00CA
:1035C40007A90007B60006C3000AD00006F0000EE3
:1035D400FD00061701092401093E010A5E0109786C
:1035E400010C920108AC0109B90108D30107E001FB
:1035F40008ED0108FA010907020A2102093B020940
:1036040055020775020B82020D9C020ABC020AD6FF
:103614000207F00208FD020D0A030824030832031E
:103624000A0D2054696D652061646A757374200005
:103634000A0D20466C616720000A0D205265616402
:103644002020000A0D2054696D652061646A757339
:1036540074206E657700200A0D00307871712000A7
:10366400200A0D003078717120000001020203036A
:103674000303040404040404040405050505050502
:1036840005050505050505050505060606060606E0
:1036940006060606060606060606060606060606C6
:1036A40006060606060606060606070707070707B0
:1036B4000707070707070707070707070707070796
:1036C4000707070707070707070707070707070786
:1036D4000707070707070707070707070707070776
:1036E4000707070707070707070708080808080860
:1036F4000808080808080808080808080808080846
:103704000808080808080808080808080808080835
:103714000808080808080808080808080808080825
:103724000808080808080808080808080808080815
:103734000808080808080808080808080808080805
:1037440008080808080808080808080808080808F5
:1037540008080808080808080808080808080808E5
:0A376400080808080808080808080B
:00000001FF
