:100000000C94F6020C9413030C9413030C94130336
:100010000C9413030C9413030C9413030C94130308
:100020000C9413030C947D080C9413030C94130389
:100030000C9413030C9413030C9413030C941303E8
:100040000C94CB0B0C94AA0C0C9413030C94130378
:100050000C9413030C9413030C9413030C941303C8
:100060000C9413030C941303FC0FFE1FFF3F07387F
:100070000738073807380738073807380738073888
:1000800002100210021007380738073807380738FF
:100090000738073807380738FF3FFE1FFC0F0010EE
:1000A0000038003800380038003800380038003890
:1000B00000380038003800100010001000380038F8
:1000C0000038003800380038003800380038003870
:1000D00000380010FE0FFF1FFE3F003800380038C8
:1000E000003800380038003800380038FC3FFE1F68
:1000F000FF0F0700070007000700070007000700C1
:1001000007000700FF1FFE3FFC1FFE0FFF1FFE3F03
:10011000003800380038003800380038003800381F
:100120000038FE1FFF1FFE1F00380038003800385F
:1001300000380038003800380038FE3FFF1FFE0F3F
:1001400002100738073807380738073807380738E4
:100150000738073807380738FF1FFE1FFC1F003815
:1001600000380038003800380038003800380038CF
:10017000003800380010FC1FFE3FFF1F070007007B
:100180000700070007000700070007000700FF0F30
:10019000FE1FFC3F003800380038003800380038B7
:1001A000003800380038FE3FFF1FFE0FFC1FFE3FE7
:1001B000FF1F0700070007000700070007000700F0
:1001C00007000700FE0FFE1FFE3F073807380738FD
:1001D000073807380738073807380738FF3FFE1F4A
:1001E000FC0FFE0FFF1FFE3F0038003800380038BC
:1001F00000380038003800380038001000100010B7
:10020000003800380038003800380038003800382E
:100210000038003800380010FC0FFE1FFF3F073881
:1002200007380738073807380738073807380738D6
:10023000FE1FFE1FFE1F073807380738073807382C
:100240000738073807380738FF3FFE1FFC0FFC0F41
:10025000FE1FFF3F073807380738073807380738C9
:10026000073807380738FF1FFE1FFC1F003800380B
:100270000038003800380038003800380038FE3FB9
:10028000FF1FFE0FFC0FFE1FFF3F07380710070080
:10029000070007000700070007000700070003002A
:1002A0000700070007000700070007000700070016
:1002B00007100738FF3FFE1FFC0F1C3E7663636389
:1002C00063636363373E1C0E0F0C0C0C0C0C0C0CA0
:1002D0000C0C3F3F1E7F6160603030180C06027FBF
:1002E0007F1E3F3130381E1E383030391F0E60708F
:1002F00078786C6C6663FFFF6060603F3F030303C8
:100300001F1F383030391F0E1C3E0E07073F7F6716
:100310006767673E1C7F7F6030303038181C1C0CCC
:100320000E0E3C7E6363633E1E366363637E1C7CFD
:1003300000FE00E700C301C301E701FE01DC01C0CC
:1003400001C001E2007E003C0070007000D800D8BF
:1003500000D800CC008C018C01FE01FE01060303D5
:100360000303033F3F0303031F3F736363733F1F95
:100370003F7F6363631F3F636363633F1F3F3F03CD
:1003800003030303030303030303F801F8019801C4
:10039000980198019C018C018C018C0186018601D9
:1003A000FF03FF030303030303033F3F0303033F71
:1003B0003F030303033F3FC318C618C60CCC0CDC35
:1003C0000EF807F807DC0ECC0CCE1CC618C738C3D5
:1003D000301E3F3130301E1E383030391F0EC30101
:1003E000C301E301E301B301B3019B019B019F0141
:1003F0008F018F0187018701840078000000C3010D
:10040000C301E301E301B301B3019B019B019F0120
:100410008F018F0187010000C301E300E300730037
:1004200033001B001F003B007300E300E300C30127
:100430008303F801F801980198019C019C018C014B
:100440008C018C018C018E018F0187010F0F0F0F22
:100450000F0F0F0F9F0D9F0D9B0D9B0DDB0CF30CD2
:10046000F30C730C630CC3C3C3C3C3FFFFC3C3C389
:10047000C3C3C37800FE00C60083018301830183E8
:1004800001830183018301C600FE007C00FFFFC3DE
:10049000C3C3C3C3C3C3C3C3C3C31F3F73636373B4
:1004A0003F1F030303030378FC8E070303030303C7
:1004B000078EFC78FFFF1818181818181818181845
:1004C00018C701C701CE00EE00EC007C00780038B0
:1004D000003000300018001F000F003000FC00FE4C
:1004E00001B6033303330333033303B703FE01FCC5
:1004F00000300030008701CF01CE00FE007C007C80
:100500000038007C007C00E600E600C301C301C3A4
:1005100000C300C300C300C300C300C300C300C3C3
:1005200000C300C300FF01FF01800180018001635F
:100530006363636363737F6E60606060630663061A
:100540006306630663066306630663066306630663
:100550006306FF07FF07630C630C630C630C630CFB
:10056000630C630C630C630C630C630CFF1FFF1FB5
:100570000018001800181F001F00180018001800AD
:10058000F800F8019803180318039803F801F8001D
:10059000030603060306030603061F063F0673064B
:1005A0006306630673063F061F0603030303031F68
:1005B0003F736363733F1F1E3F71E0E0FEFEE0E0A8
:1005C000E0713F1FC307E30F630C731833183F1824
:1005D0003F18331833183318630CE30FC307FCFEBE
:1005E000C7C3C3C6FCFCCECEC6C7C70011241FBEFE
:1005F000CFEFD8E0DEBFCDBF13E0A0E0B1E0E6E48E
:10060000FCE102C005900D92AC32B107D9F713E0BE
:10061000ACE2B3E001C01D92A635B107E1F70E943C
:10062000F3030C94210E0C9400001F938823D9F43B
:1006300081E0809307010E941B0980E091E0E8E5DA
:10064000F1E0DF019C011D9221503040E1F70E9452
:10065000B208182F0E94AF08682F812F4091070120
:100660000E94AF0613C080912D038C3310F080E000
:100670000EC065E00E94CC0D992341F480910701E2
:100680008F5F8093070181700E94800681E01F9137
:1006900008951F938823B1F480E091E0E8E5F1E04C
:1006A000DF019C011D9221503040E1F70E948C092E
:1006B000182F0E949209682F812F0E9477070E94AD
:1006C000BA0905C090E080912D03853108F491E0CE
:1006D000892F1F9108958EE293E00E941F0C8823BA
:1006E00011F490E04CC080912E03803311F480EF20
:1006F0003CC0873369F480E091E0E8E5F1E0DF0198
:100700009C011D9221503040E1F70E94F4052CC05D
:10071000863369F480E091E0E8E5F1E0DF019C01D7
:100720001D9221503040E1F70E940E061DC0843317
:1007300069F480E091E0E8E5F1E0DF019C011D92C1
:1007400021503040E1F70E9421060EC0823381F42F
:1007500080E091E0E8E5F1E0DF019C011D9221508D
:100760003040E1F70E942B0681EF80932F0306C0F3
:100770008C3021F410922F0310922D0391E0809180
:100780002F03813081F0813028F0803FE1F0813FFC
:1007900039F5089580912D038F5F80932D0381504B
:1007A0000E94150308C080912D038F5F80932D0355
:1007B00081500E9449038823A9F480912F038F5F01
:1007C00080932F030AC0992369F080912E030E9421
:1007D0007E07882339F410922F0310922D03089579
:1007E00010922F030895CF93DF93A89584B7877F46
:1007F00084BF8091600088618093600010926000E7
:1008000088E893E120E931E0F9013197F1F70197A8
:10081000D9F70E94630D0E943F080E94E3050E94E1
:1008200082090E94BA090E94BA090E94150CA89573
:100830007894C0E9D1E080E091E00E94740D8DE2EF
:1008400093E061E00E94810D88EE93E0FE01319714
:10085000F1F70197D9F70E946B03EDCF9C018091CE
:100860005001909151018217930708F44BC0809179
:100870005201909153018617970708F443C0F9017C
:1008800083E0F695E7958A95E1F7CB018F7090703C
:10089000B4E076956795BA95E1F7A3E0660F771F08
:1008A000AA95E1F727703070452BB1F0E60FF71FDE
:1008B00044E0EE0FFF1F4A95E1F7E05BFE4FE80FC3
:1008C000F91F81E090E002C0880F991F2A95E2F796
:1008D0002085282B20870895E60FF71F34E0EE0FC0
:1008E000FF1F3A95E1F7E05BFE4FE80FF91F81E04B
:1008F00090E002C0880F991F2A95E2F78095208525
:100900008223808708955F926F927F928F929F9249
:10091000AF92BF92CF92DF92EF92FF920F931F930D
:10092000CF93DF936C017B013A014901502E5901AD
:10093000A61AB70A8A01081B190BAA0CBB1C000FC8
:10094000111F452D50E00E942E04A016B106E8F4B8
:10095000C80196958795E501C81BD90B12C0D7FD34
:1009600005C00894E11CF11CC01BD10B0894C11CEC
:10097000D11CCA0DDB1DC601B701452D50E00E94F8
:100980002E04C614D70459F71CC0C5019695879547
:10099000E801C81BD90B12C0D7FD05C00894C11CC3
:1009A000D11CCA19DB090894E11CF11CC00FD11F2E
:1009B000C601B701452D50E00E942E04E814F90449
:1009C00059F7DF91CF911F910F91FF90EF90DF903A
:1009D000CF90BF90AF909F908F907F906F905F90DF
:1009E00008954F925F926F927F928F929F92AF92F3
:1009F000BF92CF92DF92EF92FF920F931F93CF930C
:100A0000DF933B015A0199E0899F700111248EE325
:100A100091E0E80EF91E30E0C901C0976C01CC0CE2
:100A2000DD1CC80ED91ED7011596ED91FC911697C5
:100A30008F010C0D1D1DD8018C9190E0019768E08D
:100A400070E00E94D80D6F5FD7016C932F52304039
:100A5000C901880F991F820F931FE80FF91F818129
:100A6000F8019181891B11968C9300E010E0C0E0A1
:100A7000D0E061E0462E512C38C0D7011596ED919B
:100A8000FC911697EC0DFD1D81819281800F911FC5
:100A90001796ED91FC911897E80FF91F85909490A7
:100AA000C0E0D0E010C0A2010C2E02C0440F551FC0
:100AB0000A94E2F748215921CE01860D971DB50110
:100AC0000E942E042196D7011596ED91FC91169760
:100AD000EC0DFD1D808190E0C817D90724F3089420
:100AE000A11CB11C8C91080F111DF701818190E0B0
:100AF000081719070CF4C1CF84819E01280F311DFE
:100B0000C901DF91CF911F910F91FF90EF90DF907E
:100B1000CF90BF90AF909F908F907F906F905F909D
:100B20004F900895DF92EF92FF920F931F93CF9310
:100B3000DF93D82E8B017A01E9012881203C08F04F
:100B400026588D2DB801A7010E94F1049C01219621
:100B50008881882319F0020F131FEFCFDF91CF9107
:100B60001F910F91FF90EF90DF900895BF92CF9269
:100B7000DF92EF92FF920F931F936C018B01B42EC3
:100B800050E00E942E0476010894E11CF11CC7017C
:100B9000B8014B2D50E00E942E040F5F1F4FC7017C
:100BA000B8014B2D50E00E942E04C601B8014B2D18
:100BB00050E00E942E041F910F91FF90EF90DF9064
:100BC000CF90BF90089581E068E070E048E050E089
:100BD00028E031E00E9492058CE390E061E170E052
:100BE00041E00E94B605089581E065E170E041E0D2
:100BF00050E02FE031E00E9492058FE290E06CE03F
:100C000070E041E00E94B60581E063E070E040E101
:100C100050E023E131E00E949205089581E060E117
:100C200070E041E050E02BE131E00E94920581E06C
:100C300060E070E040E150E020E231E00E94920587
:100C4000089581E060E070E042E050E028E231E0A9
:100C50000E949205089581E063E070E041E050E079
:100C600020E331E00E94920581E067E070E040E11E
:100C700050E027E331E00E94920508950F931F93FF
:100C8000082F162F862F6AE00E94CC0D282F205D9A
:100C9000802F60E070E042E050E00E94F104812F7C
:100CA0006AE00E94CC0D905D802F60E170E042E030
:100CB00050E0292F0E94F1041F910F9108950F9386
:100CC0001F93082F162F862F6AE00E94CC0D282F25
:100CD000205D802F62E270E042E050E00E94F1046B
:100CE000812F6AE00E94CC0D905D802F62E370E05E
:100CF00042E050E0292F0E94F1041F910F910895C6
:100D00000F931F93182F8FE190E068E070E04FE1A0
:100D100050E02AE030E0012F0E94830480E290E05E
:100D200068E070E040E250E02AE030E00E94830496
:100D30008FE190E065E170E04FE150E027E130E0C5
:100D40000E94830480E290E065E170E040E250E0C0
:100D500027E130E00E9483041F910F9108950F93C3
:100D60001F93982F162F042F80E0692F0E943E06B4
:100D700080E0612F0E945F06802F0E9480061F91F5
:100D80000F910895CF92DF92EF92FF920F937C0123
:100D90006B019B012E5F3F4FAC01445F5F4FB90178
:100DA00001E00E94830496012F5F3F4FA701465F39
:100DB0005F4FC7010296B9010E948304A701485FF3
:100DC0005F4FC7010496B60196010E948304C701D4
:100DD0000596B60127E030E0E20EF31EA70196016A
:100DE0000E9483040F91FF90EF90DF90CF900895C1
:100DF000FF920F931F93182F062FF42E862F6AE071
:100E00000E94CC0D282F205D812F6BE070E042E026
:100E100050E00E94F104802F6AE00E94CC0D905DAA
:100E2000812F6CE170E042E050E0292F0E94F10434
:100E3000812F62E370E042E050E023E40E94F1047D
:100E40008DE290E063E070E04FE250E023E030E0BC
:100E500001E00E9483048DE290E068E070E04FE2E0
:100E600050E028E030E00E9483048CE290E064E0EF
:100E700070E04CE250E027E030E00E94830480E321
:100E800090E064E070E040E350E027E030E00E9452
:100E9000830480E090E06FE070E049E050E02FE0F4
:100EA00030E00E94830480E090E060E170E049E07F
:100EB00050E020E130E00E948304FF20A1F484E0B0
:100EC00090E06BE070E044E050E024E130E00E940C
:100ED000830485E090E06BE070E045E050E024E1C1
:100EE00030E00E9483041F910F91FF900895982F86
:100EF000462F80E0692F0E94F80608951F93682FFF
:100F00008033C1F48FEF8093350380933403809353
:100F1000330380933203109231031092300380E048
:100F200091E0E8E5F1E0DF019C011D9221503040A5
:100F3000E1F752C08A3008F04FC0809130039091A1
:100F40003103009741F4633008F046C060933203E8
:100F500081E090E017C08130910559F4809132030F
:100F6000823011F46430C0F56093330382E090E086
:100F700009C08230910559F4663070F560933403EE
:100F800083E090E0909331038093300325C0833059
:100F90009105F1F46093350384E090E09093310380
:100FA00080933003209132039AE0299F900111240D
:100FB00080913303820F8093320320913403299F61
:100FC00090011124620F609334030E94E30802C071
:100FD000049714F010E001C011E081E00E94800647
:100FE000209132032F3F39F481E090E06AE170E014
:100FF0000E94C20608C0205D80E060E070E042E030
:1010000050E00E94F104209133032F3F39F481E135
:1010100090E06AE170E00E94C20608C0205D80E0B6
:1010200060E170E042E050E00E94F104209134035E
:101030002F3F39F481E290E06AE170E00E94C2063D
:1010400008C0205D80E062E270E042E050E00E9473
:10105000F104209135032F3F39F483E390E06AE1F6
:1010600070E00E94C20608C0205D80E062E370E08C
:1010700042E050E00E94F104812F1F910895399AB7
:10108000389A219A3A9A0E94340D86E08093B100F2
:10109000E0E7F0E080818160808380E091E0E8E536
:1010A000F1E0DF019C011D9221503040E1F70895ED
:1010B0004298299A299880913603813049F08130ED
:1010C00028F0823039F0833051F407C0409803C0D3
:1010D000409804C0409A419802C0409A419A429A6E
:1010E0008F5F80933603843010F010923603809126
:1010F000360390E00E94050D08951F920F920FB6DF
:101100000F9211242F933F934F935F936F937F938D
:101110008F939F93AF93BF93EF93FF930E945808D1
:10112000809137038F5F8093370381508A3118F0A5
:10113000A89510923703FF91EF91BF91AF919F91C6
:101140008F917F916F915F914F913F912F910F9070
:101150000FBE0F901F9018958091390308958091CC
:101160003A03089580913B030895482F6AE00E9456
:10117000CC0D282F30E084E0220F331F8A95E1F751
:10118000842F0E94CC0D892F820F0895282F22953D
:101190002F709AE0299F900111248F70820F08957B
:1011A0000F931F93182F062F80ED60E00E94470ACF
:1011B000812F0E94910A802F0E94910A0E94810A29
:1011C0001F910F9108958831E0F46C33D0F41092A0
:1011D000390360933A0380933B0380E060E00E9410
:1011E000D00880913A030E94B508682F81E00E94E0
:1011F000D00880913B030E94B508682F82E00E94CE
:10120000D00808951F93182F80ED60E00E94470AD0
:10121000812F0E94910A0E94810A80ED61E00E9464
:10122000470A0E94AB0A182F0E94BD0A0E94810A39
:10123000812F1F91089580E00E9402090E94C60834
:101240008093390381E00E9402090E94C6088093BE
:101250003A0382E00E940209282F30E0482F4F70A5
:1012600086FF12C020723070A5E035952795AA95AB
:10127000E1F7C901880F991F820F931F880F991FEB
:10128000880F991F480F13C0C9018073907074E0D4
:10129000959587957A95E1F79C0163E0220F331FBE
:1012A0006A95E1F7880F991F280F391F420F409365
:1012B0003B03089580913B03833089F480913A0386
:1012C000882369F40E9402098051823250F480918F
:1012D0003803882331F481E0809338030895109215
:1012E000380308951F93182F80E00E940209682F89
:1012F000112311F06F7701C0606880E00E94D00870
:101300001F91089560E573EC80E090E00E942D0A43
:1013100081E00E947209089580913E0308958091B2
:101320003F0308958091400308951F93182F0E9452
:10133000CF0A812F0E94290B1F91089510923C0320
:1013400081E00E9495098823A1F081E493E061E0A7
:101350000E947A0B81E493E068E070E00E94A70BA2
:10136000882339F481E080933C038091410380938A
:101370003D030895CF93DF9380913C03813009F0C2
:1013800067C00E94290B8CEC61E00E94490B84E449
:1013900061E00E94490B80E197E220E931E0F90128
:1013A0003197F1F70197D9F781E00E94290B8CEC76
:1013B00061E00E94490B8EEB61E00E94490BC1E4A1
:1013C000D3E081E00E94610B899383E0CA34D8079F
:1013D000C1F7CE01099769E070E00E94A70B88234E
:1013E000C9F590914203892F807880934003882328
:1013F00041F08091410380958093410390959093B3
:10140000420380913D03803149F490914103892F3B
:10141000869580933E0390FF15C016C0883211F068
:101420008232B1F480914103209142032295207FC2
:10143000382F32953F70232B20933E0390E0019686
:1014400083FD02C080E001C085E080933F0302C0BD
:101450000E949E09DF91CF9108959B01AC0160E04D
:1014600074E284EF90E00E94EB0D20513040404048
:10147000504056954795379527952093B800809111
:10148000B80090E08B3008F091E0892F0895982FF4
:1014900084EA8093BC0028EE33E005C021153105B5
:1014A00031F0215030408091BC0087FFF7CF809110
:1014B000B900887F883021F0803111F090E01FC0A2
:1014C000690F6093BB0084E88093BC0028EE33E092
:1014D00005C02115310531F0215030408091BC000C
:1014E00087FFF7CF8091B900887F883111F491E0B0
:1014F00006C090E0803409F091E081E09827892FC0
:10150000089584E98093BC0028EE33E005C02115DE
:10151000310531F0215030408091BC0084FDF7CF7F
:1015200008958093BB0084E88093BC0028EE33E0EC
:1015300005C02115310531F0215030408091BC00AB
:1015400087FFF7CF8091B90090E0887F883209F05B
:1015500091E0892F089584EC8093BC0028EE33E05D
:1015600005C02115310531F0215030408091BC007B
:1015700087FFF7CF8091BB00089584E88093BC007B
:1015800028EE33E005C02115310531F021503040FF
:101590008091BC0087FFF7CF8091BB00089524B1F4
:1015A000982F9095922394B995B1982B95B980E88E
:1015B00097E00197F1F70895F89494B1982B94B9B6
:1015C00095B1282F2095922395B990E29A95F1F73D
:1015D00094B1292324B995B1982B95B980E091E075
:1015E0000197F1F778940895F89494B1982B94B9F1
:1015F00095B1282F2095922395B9E0EFF0E031972F
:10160000F1F794B1292324B995B1982B95B985E3C5
:101610008A95F1F778940895F89494B1982B94B939
:1016200095B1282F2095922395B990E29A95F1F7DC
:1016300094B1292324B995B1982B95B990E39A9543
:10164000F1F793B1ECEDF0E03197F1F7789489235D
:101650000895F89494B1982B94B995B1282F2095BA
:10166000922395B9E0E8F7E03197F1F794B1292397
:1016700024B995B1982B95B9E8ECF0E03197F1F7E2
:1016800093B1E8EBF6E03197F1F7789490958923E0
:101690000895FF920F931F93082FF62E10E000FF7E
:1016A00004C08F2D0E94DC0A03C08F2D0E94F40A13
:1016B0001F5F183011F00695F2CF1F910F91FF9028
:1016C0000895FF920F931F93F82E10E000E01695F7
:1016D0008F2D0E940C0B811110680F5F0830B9F735
:1016E000812F1F910F91FF900895682F8CEC0E941D
:1016F000490B08950F931F93CF93DF93EC01062FAF
:1017000083E30E94490B18E0802F0E94610B8993AC
:101710001150D1F7DF91CF911F910F9108950F9341
:101720001F93CF93DF93EC01062F85E50E94490BB1
:1017300018E08991602F0E94490B1150D1F7DF9179
:10174000CF911F910F91089580914A0308951F939F
:10175000FC0140E050E090E018E117C0A08120E0DB
:1017600030E08A2F8927B82FB17080FD9127969598
:10177000B13009F490682F5F3F4F2830310511F0E8
:10178000A695EFCF31964F5F5F4F4617570734F35B
:10179000892F1F9108951F920F920FB60F92112457
:1017A0002F933F934F938F939F9320914F033091AB
:1017B000500388EF86BD49B180914E038F5F8093BF
:1017C0004E03823150F036FD06C035FF04C0309321
:1017D0004D0320934C0320E030E0909151034927C2
:1017E00047FF15C0909590935103863018F420E080
:1017F00030E005C02115310511F08C3040F036FD88
:1018000002C0220F331F97FF216010924E033093C6
:10181000500320934F039F918F914F913F912F91B0
:101820000F900FBE0F901F90189557985F9A84E005
:1018300085BDEEE6F0E08081816080830895FC0143
:10184000F89480914C0390914D0310924D031092A7
:101850004C037894009711F480E008958F7380838F
:1018600081E0089508953B9A282F2095F8949AE0F6
:1018700087E8089410F4439802C0439A00000E943D
:10188000470C0E94470C26959A95A1F704C0182E84
:101890001A94F1F70895439A789480ED97E00197B0
:1018A000F1F70895CF93DF93EC0103C021960E94D6
:1018B000330C88818823D1F7DF91CF910895CF929F
:1018C000DF92FF920F931F93DF93CF9300D000D04E
:1018D00000D0CDB7DEB78C01F62EDE011196ECE11B
:1018E000F3E086E001900D928150E1F71BC0F80112
:1018F0008081382F32953F708F703A3010F420E39A
:1019000001C027E58A3010F490E301C097E50F5F2E
:101910001F4F230F2B83980F9C83C6010E94520CEC
:10192000FA9404C06E010894C11CD11CFF20F9F682
:1019300088E193E00E94520C26960FB6F894DEBF21
:101940000FBECDBFCF91DF911F910F91FF90DF9020
:10195000CF9008951F920F920FB60F9211242F93DC
:101960008F939F93EF93FF9380915203803109F4FB
:1019700042C080915403845080935403E0915203F9
:10198000809153032091540390915503F0E0EE0FA2
:10199000FF1FEE0FFF1FEE0FFF1FE80FF11D84E08A
:1019A000EE0FFF1F8A95E1F7E05BFE4FE90FF11D97
:1019B000E20FF11D808580958EBD809154038823B0
:1019C000D1F480E180935403809153038F5F80931F
:1019D000530380915303883070F010925303809129
:1019E0005203882319F481E18093520380915203BA
:1019F000815080935203FF91EF919F918F912F918E
:101A00000F900FBE0F901F901895809355038CE098
:101A1000809354031092530381E080935203E0912A
:101A20005203809153032091540390915503F0E0A9
:101A300033E0EE0FFF1F3A95E1F7E80FF11D84E068
:101A4000EE0FFF1F8A95E1F7E05BFE4FE90FF11DF6
:101A5000E20FF11D808580958EBD08958EBD0DB479
:101A600007FEFDCF8EB5089584B18C6384B98CB523
:101A7000806F8CBD8CB58C7F8CBD8DB581608DBD2C
:101A80000895982F8091C00085FFFCCF9093C600E9
:101A900008958091C00087FFFCCF9091C60080918F
:101AA000C00085FFFCCF9093C600892F089588233E
:101AB00021F08091C100806803C08091C1008F77C0
:101AC0008093C10008955098519A88E18093C10095
:101AD00086E08093C20082E08093C0001092C5002F
:101AE00082E28093C4000895FC0107C08091C00089
:101AF00085FFFCCF31969093C60090819923B1F772
:101B00000895CF92DF92FF920F931F93DF93CF93AD
:101B100000D000D000D0CDB7DEB78C01F62EDE01AC
:101B20001196E6E2F3E086E001900D928150E1F734
:101B30001BC0F8018081382F32953F708F703A308A
:101B400010F420E301C027E58A3010F490E301C0CF
:101B500097E50F5F1F4F230F2B83980F9C83C601C0
:101B60000E94740DFA9404C06E010894C11CD11C2B
:101B7000FF20F9F682E293E00E94740D26960FB6DC
:101B8000F894DEBF0FBECDBFCF91DF911F910F91B3
:101B9000FF90DF90CF900895991B79E004C0991FC2
:101BA000961708F0961B881F7A95C9F780950895B7
:101BB00097FB092E07260AD077FD04D02ED006D039
:101BC00000201AF4709561957F4F0895F6F790956F
:101BD00081959F4F0895A1E21A2EAA1BBB1BFD0100
:101BE0000DC0AA1FBB1FEE1FFF1FA217B307E407FC
:101BF000F50720F0A21BB30BE40BF50B661F771F54
:101C0000881F991F1A9469F7609570958095909533
:101C10009B01AC01BD01CF010895AA1BBB1B51E183
:101C200007C0AA1FBB1FA617B70710F0A61BB70B4C
:101C3000881F991F5A95A9F780959095BC01CD01F1
:061C40000895F894FFCFA7
:101C46000A0D204320200001C7C0C3D0D3C700D24D
:101C5600C5D500CFC5D0C5D0DBC200D1CBC8C20028
:101C6600D230CFCBC8C2C000D1CFC0D1C8C130009E
:101C7600C7C8CCCDC8C900C4C8C7C5CBDC000236AE
:101C86003039025802680002363039019702BA022A
:101C960040002000080002000000000000000000D4
:101CA600000000000000000000000000000000002E
:101CB600000000000000000000000000000000001E
:101CC600000000000000000000000000000000000E
:101CD60000000000000000000000000000000000FE
:101CE60000000000000000000000000000000000EE
:101CF60000000000000000000000000000000000DE
:101D060000000000000000000000000000000000CD
:101D160000000000000000000000000000000000BD
:101D260000000000000000000000000000000000AD
:101D3600000000000000000000000000000000009D
:101D4600000000000000000000000000000000008D
:101D5600000000000000000000000000000000007D
:101D6600000000000000000000000000000000006D
:101D7600000000000000000000000000000000005D
:101D8600000000000000000000000000000000004D
:101D960000000000000000000E00000E36000E6C71
:101DA600000EA2000ED8000E0E010E44010E7A019E
:101DB6000EB0010EE601001C02000000000000004B
:101DC600000000000000000000000000000000000D
:101DD600000E1C020E5202070000060D00071A0034
:101DE600062700083400064100074E00075B00077F
:101DF60068000975000A8F0007A90007B60006C328
:101E0600000AD00006F0000EFD00061701092401A5
:101E1600093E010A5E010978010C920108AC01092C
:101E2600B90108D30107E00108ED0108FA01090725
:101E3600020A2102093B020955020775020B8202BA
:101E46000D9C020ABC020BD60207F00208FD020D29
:101E56000A03082403083203200A0D003078717142
:0C1E66002000200A0D003078717120006F
:00000001FF
