:100000000C942B070C9448070C9448070C94480751
:100010000C9448070C9448070C9448070C94480724
:100020000C9448070C946C110C9448070C944807E6
:100030000C9448070C9448070C9448070C94480704
:100040000C9464150C9443160C9448070C944807C0
:100050000C9448070C9448070C9448070C944807E4
:100060000C9448070C944807F001FC071C0F0E0E77
:100070000E0E071E071FC71DE71C771C1F1C0F1C39
:100080000E0E0E0E1E07FC07F001E000F800EE0059
:10009000E700E200E000E000E000E000E000E00057
:1000A000E000E000E000E000FE07FE077C00FE014B
:1000B000C7018203800380038003C001C001E00008
:1000C000700038001C000E000600FF07FF077E00CE
:1000D000FF01C103800380038003C001FC00FC0119
:1000E000C0030007000700070007C003FF017F00EF
:1000F000000F800FC00FE00E600E300E380E180E8D
:100100000C0E060E070EFF3FFF3F000E000E000E06
:10011000000EFF03FF0307000700070007000700AA
:10012000FF00FF03C0070007000700078007C003A8
:10013000FF017F00E007F8073C001E000E000600EC
:100140000700F703FF070F0F070E070E070E0E0E2F
:100150000E07FC03F801FF0FFF0F000E000600075B
:10016000000380038001C001C000E0006000700057
:100170003000380018001C00F801FE070F0F070EB2
:10018000070E0F0E9E07FC01F8039E070E0F070EC9
:10019000070E070E0F0FFE07F801F001FC071E0FF8
:1001A0000F0E071C071C071C071C0E1EFE1FF81D48
:1001B000000C000E00078007FE017E00000000001A
:1001C000000000000000000000183C3C1800000087
:1001D00000001C3C3C3838381C0F0700018003C06D
:1001E00001E00038001C000E0007000E001C007823
:1001F00000E000C00180030001FF07FF07000000CE
:10020000000000FF07FF07020007000E001C007837
:1002100000E000C0018003C001E00070001C000E7F
:1002200000070002000F003F007800E000C001C09E
:1002300001C001C001E001FC007C001C001C001C8E
:1002400000000000000E000E000E00FF7FFF7FE0A8
:1002500000A001B001B001B0031803180318070C87
:10026000060C060C06FE0FFE0F060C071C031803F7
:1002700018FF07FF0707000700070007000700FF38
:1002800001FF070707070E070E070E070E0707FFF8
:1002900003FF00FF01FF038707070707070707871B
:1002A00003FF01FF030707070E070E070E070E07E0
:1002B00007FF03FF00FF03FF030700070007000716
:1002C00000070007000700070007000700070007F6
:1002D00000070007000700F01FF01F701C701C7063
:1002E0001C701C701C701C781C781C381C381C3846
:1002F0001C3C1C1E1CFF7FFF7F07700770077007E8
:1003000070FF03FF0307000700070007000700FF57
:1003100003FF03070007000700070007000700FFAF
:1003200003FF03C7E1CE71CE71CE39DC39DC1DDCB1
:100330001DF80FF80FF81DDC1DDC3DDC39CE39CE81
:1003400071CE71C7E1FE00FF0381070007000700BF
:10035000078003FE01FE038007000E000E000E0062
:100360000E8107FF03FE00070E070F070F870F8799
:100370000F870EC70E470E670E270E370E370E1F5C
:100380000E1F0E0F0E0F0E070E87038703FE01FCD4
:10039000000000070E070F070F870F870F870EC794
:1003A0000E470E670E270E370E370E1F0E1F0E0F4D
:1003B0000E0F0E070E070607078703C701C7006762
:1003C00000770037001F0037007700E700C700C73D
:1003D0000187030707070EF01FF01F701C701C70C9
:1003E0001C701C701C781C381C381C381C381C38BD
:1003F0001C1C1C1E1C0F1C071C0E0E0E1E0E1A1E93
:100400001B1E1B1619B619B618A618E71867180789
:100410001807180738073807380738070E070E0778
:100420000E070E070E070E070EFF0FFF0F070E0732
:100430000E070E070E070E070E070E070EF001F847
:10044000071C0F0E0E0E1E071C071C071C071C079F
:100450001C071C071C0F0E0E0E1E07FC03F001FFED
:100460000FFF0F070E070E070E070E070E070E07EA
:100470000E070E070E070E070E070E070E070E07D4
:100480000EFF01FF038707070E070E070E070E0773
:100490000F8707FF03FF000700070007000700079B
:1004A000000700E007F80F3C081E000E00070007D9
:1004B00000070007000700070007000E000E003CC1
:1004C00008F80FF007FF1FFF1FE000E000E000E06A
:1004D00000E000E000E000E000E000E000E000E01C
:1004E00000E000E000E000030C070E06060E060C1C
:1004F000071C039803B801B001F001E000E00060C0
:1005000000600070003E001E00C001C001F007FC4A
:100510001FDE3DCE79C771C771C771C771C771CF73
:1005200039CE3DFC1FF807C001C0010E381C1C1855
:100530000C380E7007E003E003C001C001E0037057
:10054000077007380E1C1C1C1C0E380770070707A5
:10055000070707070707070707070707070707072B
:100560000707070707070707070707FF1FFF1F0002
:100570001C001C001C001C071C071C071C071C0778
:100580001C071C071C0E1CFE1FF81F001C001C0073
:100590001C001C001C001C001CE71CE71CE71CE7DF
:1005A0001CE71CE71CE71CE71CE71CE71CE71CE733
:1005B0001CE71CE71CE71CFF1FFF1FE71CE71CE7ED
:1005C0001CE71CE71CE71CE71CE71CE71CE71CE713
:1005D0001CE71CE71CE71CE71CFF3FFF3F0038003F
:1005E00038003800383F003F003800380038003805
:1005F000003800F807F81F381C38383838383838D1
:1006000038381CF80FF803071C071C071C071C07C9
:100610001C071C071C7F1CFF1CE71DC71DC71DC72F
:100620001DC71DE71CFF1C3F1C0700070007000734
:1006300000070007000700FF01FF070707070E0775
:100640000E070E070E0707FF03FF00FE00FF0381E2
:1006500007000E000E001C001CFE1FFE1F001C00E9
:100660001C001C000E000E8107FF03FE00870FC751
:100670001FC71DE738E738E738E738FF38FF38E7A6
:1006800038E738E738E738E738C71DC71F870FF066
:100690000FFC0F1C0E0E0E0E0E0E0E0E0E1C0EFC80
:1006A0000FF00F180E0C0E0C0E0E0E060E060E0797
:1006B0000EFC0FFE1FFF3F073807380738073807C3
:1006C0003807380738073807380738073807380732
:1006D0003807380738073807380738073807380722
:1006E00038FF3FFE1FFC0F001000380038003800B4
:1006F000380038003800380038003800380038003A
:100700003800380038003800380038003800380029
:1007100038003800380038003800380010FE0FFF6D
:100720001FFE3F003800380038003800380038001D
:100730003800380038FC3FFE1FFF0F070007000796
:1007400000070007000700070007000700FF1FFE63
:100750003FFC1FFE0FFF1FFE3F003800380038002F
:100760003800380038003800380038FE1FFF1FFE00
:100770001F003800380038003800380038003800D2
:10078000380038FE3FFF1FFE0F02100738073807FA
:100790003807380738073807380738073807380761
:1007A00038FF3FFE3FFC3F0038003800380038007B
:1007B000380038003800380038003800380010FCA5
:1007C0001FFE3FFF1F070007000700070007000785
:1007D00000070007000700FF0FFE1FFC3F00380066
:1007E000380038003800380038003800380038FE4B
:1007F0003FFF1FFE0FFC1FFE3FFF1F070007000704
:1008000000070007000700070007000700FF0FFFB1
:100810001FFF3F07380738073807380738073807FA
:100820003807380738FF3FFE1FFC0FFE0FFF1FFE83
:100830003F003800380038003800380038003800F1
:1008400038003800380038003800380038003800E8
:1008500038003800380038003800380038003800D8
:1008600010FC0FFE1FFF3F0738073807380738070F
:10087000380738073807380738FE1FFE1FFE1F07E6
:100880003807380738073807380738073807380770
:1008900038FF3FFE1FFC0FFC0FFE1FFF3F0738070E
:1008A000380738073807380738073807380738FF58
:1008B0003FFE3FFC3F003800380038003800380069
:1008C00038003800380038FE3FFF1FFE0FFC0FFED7
:1008D0001FFF3F0738071007000700070007000742
:1008E00000070007000700070007000700070007D0
:1008F00000070007000700070007100738FF3FFE4A
:100900001FFC0F0E0A111111111111110A0E1F04F3
:1009100004040404040404041F0E11101010080839
:100920000402011F0E1910100806181010190E10DD
:100930001818141212113F1010101F0101010F1886
:10094000101010190E0C0201010D1B1111111A0EBD
:100950001F100808080404040402020E1111110AF1
:1009600006191111110E0E0B1111111B1610100882
:100970000E181838242464427E42C1811F010101EF
:10098000011F312121311F0F111111090F191111EF
:10099000190F0F01010101010101010101F8008896
:1009A0000088008C008C008C008400860086008308
:1009B00000FF010101010101011F010101011F01EE
:1009C0000101011F2104220224032801B800F000C4
:1009D00028012C0324022204230C0E1110100806F7
:1009E000181010190E6161715159494D4547434323
:1009F0002438006161715159494D45474343612194
:100A000011090D0709193161C1784848484C44441F
:100A100044444643830183018301C70145014501E5
:100A20006D01290129013901110111111111111F44
:100A300011111111111C2243414141414143221C1A
:100A40001F111111111111111111110F1911111182
:100A5000190F010101011C260201010101010322FC
:100A60001C7F0808080808080808080841432222D3
:100A700014141C08080403107CD291919191527CAB
:100A80001010412222141C08141422224141414119
:100A900041414141414141FF80808021212121216B
:100AA000312E2020202021022102210221022102B8
:100AB00021022102210221022102FF03110211025F
:100AC000110211021102110211021102110211028E
:100AD000FF070004000400040F080808087888884D
:100AE00088887841414141414F595151594F010145
:100AF0000101011F312121311F0E113020203E2024
:100B00002010110EE10111021106090409040F045D
:100B10000904090419061102E1013E232121233CA5
:100B200024222223211C3E7663636363636363375D
:100B30003E1C3F3F0C0C0C0C0C0C0C0C0C3F3F1ED5
:100B40007F6160603030180C06027F7F1E3F3130BD
:100B5000381E1E383030391F0E607078786C6C6625
:100B600063FFFF6060603F3F0303031F1F383030A7
:100B7000391F0E1C3E0E07073F7F676767673E1CE5
:100B80007F7F6030303038181C1C0C0E0E3C7E63AA
:100B900063633E1E366363637E1C7C00FE00E700D9
:100BA000C301C301E701FE01DC01C001C001E20095
:100BB0007E003C0070007000D800D800D800CC0047
:100BC0008C018C01FE01FE010603030303033F3F7A
:100BD0000303031F3F736363733F1F3F7F636363BD
:100BE0001F3F636363637F3F3F3F030303030303CD
:100BF0000303030303F801F8019801980198019C8D
:100C0000018C018C018C0186018601FF03FF030327
:100C100003030303033F3F0303033F3F03030303B4
:100C20003F3FC318C618C60CCC0CDC0EF807F807FB
:100C3000DC0ECC0CCE1CC618C738C3301E3F31307A
:100C4000301E1E383030391F0EC301C301E301E3EB
:100C500001B301B3019B019B019F018F018F0187AC
:100C60000187013800C301C301E301E301B301B30C
:100C7000019B019B019F018F018F018701000000F3
:100C8000000000C301E300E300730033001B001FFA
:100C9000003B007300E300E300C3018303F801F8A5
:100CA00001980198019C019C018C018C018C018CA4
:100CB000018E018F0187010F0F0F0F0F0F0F0F9F75
:100CC0000D9F0D9B0D9B0DDB0CF30CF30C730C6354
:100CD0000CC3C3C3C3C3FFFFC3C3C3C3C3C3780031
:100CE000FE00C60083018301830183018301830128
:100CF0008301C600FE007C00FFFFC3C3C3C3C3C3A0
:100D0000C3C3C3C3C31F3F736363733F1F030303A3
:100D1000030378FC8E070303030303078EFC78FFAD
:100D2000FF1818181818181818181818C701C7012C
:100D3000CE00EE00EC007C0078003800300030007F
:100D400018001F000F003000FC00FE01B603330343
:100D5000330333033303B703FE01FC0030003000DC
:100D60008701C701CE00EE007C007C0038007C00CB
:100D70007600E600E600C301C301C300C300C30060
:100D8000C300C300C300C300C300C300C300C3004B
:100D9000FF01FF018001800180016363636363637E
:100DA000737F6E606060606306630663066306635C
:100DB00006630663066306630663066306FF07FFB2
:100DC00007630C630C630C630C630C630C630C63B0
:100DD0000C630C630C630CFF1FFF1F00180018004E
:100DE000181F001F00180018001800F800F80198DC
:100DF00003180318039803F801F80003030303031F
:100E000003030303031F033F0373036303630373BA
:100E1000033F031F0303030303031F3F7363637352
:100E20003F1F1E3F71E0E0FEFEE0E0E0713F1FC3A8
:100E300007E30F630C731833183F183F1833183348
:100E4000183318630CE30FC307FCFEC7C3C3C6FC0B
:100E5000FCCECEC6C7C711241FBECFEFD8E0DEBF81
:100E6000CDBF17E0A0E0B1E0E6E4F5E302C00590F5
:100E70000D92A030B107D9F717E0A0E0B7E001C0AC
:100E80001D92AC32B107E1F70E94BD080C94A11A83
:100E90000C9400001F93982F80910207811181E02C
:100EA000182F992301F580E091E00E94241780918A
:100EB0000207873319F480E00E94190E809102071F
:100EC000863319F480E00E94AA0D809102078433D2
:100ED00019F480E00E94320D80910207823309F0FC
:100EE00072C080E06AC0809101078F3009F068C04D
:100EF00080E092E0E6E7F2E0DF019C011D922150E4
:100F00003040E1F788EB9BE020E931E0F9013197CF
:100F1000F1F70197D9F780910207873319F48FE32E
:100F20000E94190E80910207863319F48FE30E9404
:100F3000AA0D80910207843319F48FE30E94320DC9
:100F400080910207823319F48FE30E94A10C88EB91
:100F50009BE020E931E0F9013197F1F70197D9F7EA
:100F600080E092E0E6E7F2E0DF019C011D92215073
:100F70003040E1F788EB9BE020E931E0F90131975F
:100F8000F1F70197D9F780910207873319F48FE3BE
:100F90000E94190E80910207863319F48FE30E9494
:100FA000AA0D80910207843319F48FE30E94320D59
:100FB00080910207823339F48FE30E94A10C03C0B1
:100FC000893108F010E0812F1F9108951F93882325
:100FD000B9F480E191E00E94241781E080934201FE
:100FE0000E940D120E94A411182F0E94A111682FB7
:100FF000812F409142010E94E80B0E944C121AC0BE
:10100000809101078C3310F080E015C065E00E94EC
:10101000FF19992379F40E94A411182F0E94A1119D
:10102000682F409142014F5F409342014170812FF0
:101030000E94E80B81E01F9108951F93882381F49B
:1010400081E291E00E9424170E94CA12182F0E9488
:10105000D012682F812F0E94410C0E94F81205C007
:1010600090E080910107853108F491E0892F1F916C
:10107000089583E097E00E94B815882311F490E06A
:101080002EC080ED97E020E931E0F9013197F1F7CA
:101090000197D9F790910307903311F480EF03C0C3
:1010A000923221F480EE8093040718C0973331F018
:1010B000963321F0943311F0923341F482E080931F
:1010C0000407109201079093020708C09C3031F486
:1010D00010920407109201071092020791E080918C
:1010E0000407823001F1833028F4882351F08130E5
:1010F000E9F510C0803F61F1813FD1F1803EB1F54B
:1011000020C0809101078F5F8093010781500E946A
:10111000E60711C0809101078F5F8093010781501E
:101120000E941D0808C0809101078F5F809301070E
:1011300081500E944A078823D9F4809104078F5F69
:1011400010C09923A9F0809103070E94AF0E06C03A
:10115000992371F0809103070E94170F882341F4AF
:101160008FEF809304071092010702C010920407CA
:1011700083E097E00E94B8150895CF93DF93A89578
:1011800084B7877F84BF809160008861809360000E
:101190001092600088E893E120E931E0F90131978D
:1011A000F1F70197D9F70E9413170E942E110E94A0
:1011B0006F0C0E94C0120E94F8120E94F8120E9446
:1011C000AE15A8952BE088E190E00FB6F894A895AD
:1011D000809360000FBE2093600078948FE291E0CE
:1011E0000E94241728EE33E0C0E9D1E005C0CE010B
:1011F0000197F1F72150304021153105C1F70E94C8
:10120000390828EE33E0F3CF282FA82FB0E08091E3
:101210006C0290916D02A817B90708F05FC0E62F25
:10122000F0E080916E0290916F02E817F90708F0E4
:1012300055C0269526952695822F90E062956F7071
:1012400070E09F012F703070A770B070452B19F1BE
:10125000E0917402F0917502EE0FFF1FE60FF71F89
:1012600073E0EE0FFF1F7A95E1F7E80FF91F64E0D6
:10127000EE0FFF1F6A95E1F7E459FD4FE20FF31FF0
:1012800081E090E002C0880F991FAA95E2F72285BD
:10129000282B22870895E0917402F0917502EE0FD9
:1012A000FF1FE60FF71F43E0EE0FFF1F4A95E1F720
:1012B000E80FF91F84E0EE0FFF1F8A95E1F7E4596C
:1012C000FD4FE20FF31F81E090E002C0880F991FED
:1012D000AA95E2F780952285822382870895CF928E
:1012E000DF92EF92FF920F931F93C62ED42EE22E21
:1012F000F02E082F0AC0802F612F4F2D50E00E9442
:1013000004091F5F1E15B8F30F5F0D1510F41C2D97
:10131000F9CF1F910F91FF90EF90DF90CF9008953C
:101320009F92AF92BF92CF92DF92EF92FF920F9374
:101330001F93CF93DF93E82EF62E942EA22EB02E7D
:10134000022F061B142F181B000F110F4B2D50E0FE
:101350000E9404090117D8F4C02EDD24812F869540
:10136000E601C81BD109012F10E00EC0D7FD03C054
:10137000F394C01BD10BE394CC0DDD1D8E2D6F2D8E
:101380004B2D50E00E940409E91481F719C0C12EC9
:10139000DD24802F8695E601C81BD10910E00EC020
:1013A000D7FD03C0E394C01BD10BF394CC0DDD1D1E
:1013B0008E2D6F2D4B2D50E00E940409FA1481F7F9
:1013C000DF91CF911F910F91FF90EF90DF90CF9021
:1013D000BF90AF909F9008956F927F928F929F924F
:1013E000AF92BF92CF92DF92EF92FF920F931F9333
:1013F000CF93DF93862E942E99E0899F700111245C
:1014000088E492E0E80EF91E30E0C901C0976C0153
:10141000CC0CDD1CC80ED91ED7011596ED91FC91A0
:1014200016978F010C0D1D1DD8018C9190E001972E
:1014300068E070E00E940B1A6F5FD7016C932F5227
:101440003040C901880F991F820F931FE80FF91FC1
:101450008181F8019181891B11968C9300E010E045
:10146000C0E0D0E081E0682E712C35C0D701159620
:10147000ED91FC911697EC0DFD1D81819281800FFD
:10148000911F1796ED91FC911897E80FF91FA59001
:10149000B490C0E0D0E00FC0A3010C2E02C0440FF6
:1014A000551F0A94E2F74A215B21882D8C0F692D84
:1014B0000E9404092196D7011596ED91FC9116978B
:1014C000EC0DFD1D808190E0C817D9072CF3939493
:1014D0008C91080F111DF701818190E00817190701
:1014E0002CF200E010E0D82CDC0E09C09A948D2D6F
:1014F000692D40E050E00E9404090F5F1F4FD701A3
:101500006C9111968C9111970E94FF1990E0081729
:10151000190764F314968C919E01280F311DC9019F
:10152000DF91CF911F910F91FF90EF90DF90CF90BF
:10153000BF90AF909F908F907F906F90089566239B
:1015400011F480E0089590E0FC0173E0EE0FFF1FBE
:101550007A95E1F7E80FF91FE85BFD4F862F90E0E1
:10156000C0979C01220F331F280F391F0580F68179
:10157000E02DE20FF31F8081089590E0FC01A3E0CD
:10158000EE0FFF1FAA95E1F7E80FF91FE85BFD4F8B
:1015900084810895BF92CF92DF92EF92FF920F93D2
:1015A0001F936C018B01B42E50E00E940409760158
:1015B0000894E11CF11C8E2D602F4B2D50E00E94F1
:1015C00004090F5F1F4F8E2D602F4B2D50E00E949E
:1015D00004098C2D602F4B2D50E00E9404091F91AF
:1015E0000F91FF90EF90DF90CF90BF900895DF9222
:1015F000EF92FF920F931F93D82E162F042F50E0D7
:101600000E940409FD2CF3948F2D612F402F50E090
:101610000E940409E12EE3948F2D6E2D402F50E09F
:101620000E9404098D2D6E2D402F50E00E94040968
:101630001E5F8F2D612F402F50E00E9404091F91E3
:101640000F91FF90EF90DF9008950F931F9310E09C
:10165000882309F411E084E06BE044E024E1012FE9
:101660000E94900985E06BE045E024E10E9490092A
:1016700080E06FE049E02FE001E00E94900980E007
:1016800060E149E020E10E9490091F910F910895C7
:101690000F931F93082F162F862F6AE00E94FF19C1
:1016A000282F205D802F60E042E00E94EC09812F0E
:1016B0006AE00E94FF19905D802F60E142E0292FCF
:1016C0000E94EC091F910F9108950F931F93082F0B
:1016D000162F862F6AE00E94FF19282F205D802F89
:1016E00062E242E00E94EC09812F6AE00E94FF1949
:1016F000905D802F62E342E0292F0E94EC091F9148
:101700000F9108950F931F93182F8FE168E04FE119
:101710002AE0012F0E94900980E268E040E22AE07E
:101720000E9490098FE165E14FE127E10E94900955
:1017300080E265E140E227E10E9490091F910F914C
:101740000895FF920F931F93182FF62E262F2E5FCA
:10175000482F445F622F01E00E9490092F2D2F5FD8
:10176000412F465F812F8E5F622F0E949009412F8B
:10177000485F812F8C5F6F2D2F2D0E949009812F44
:101780008B5F6F2D195F412F2F2D0E9490091F91A4
:101790000F91FF90089520E030E0809174029091C5
:1017A0007502892B11F421E030E03093750220930B
:1017B0007402922F88270A9684599D4FFC0180E07D
:1017C00091E0DF019C011D9221503040E1F7089526
:1017D0000F931F93982F162F042F80E0692F0E94DC
:1017E000480B80E0612F0E94650B802F0E94820BC6
:1017F0000E94CB0B1F910F910895FF920F931F939F
:10180000182F062FF42E862F6AE00E94FF19282F2A
:10181000205D812F6BE042E00E94EC09802F6AE09E
:101820000E94FF19905D812F6CE142E0292F0E94F8
:10183000EC09812F62E342E023E40E94EC098DE28F
:1018400063E04FE223E001E00E9490098DE268E04E
:101850004FE228E00E9490098CE264E04CE227E02D
:101860000E94900980E364E040E327E00E94900931
:101870008F2D0E94250B0E94CB0B1F910F91FF9083
:101880000895982F462F80E0692F0E94FD0B089540
:10189000DF92EF92FF920F931F93CF93DF93D82E97
:1018A000162FF42EE9012881222369F0203C08F04C
:1018B00026588D2D612F4F2D0E94EC09015019F0F3
:1018C000180F2196F0CFEE2011F00E94CB0BDF9184
:1018D000CF911F910F91FF90EF90DF900895EF92BD
:1018E0000F93DF93CF93CDB7DEB727970FB6F8945A
:1018F000DEBF0FBECDBFDE011196E9EDF1E087E05E
:1019000001900D928150E1F781E068E048E09E018E
:101910002F5F3F4F07E0EE24E3940E94480C8CE3D6
:1019200090E061E170E041E00E94CA0A27960FB69C
:10193000F894DEBF0FBECDBFCF91DF910F91EF9036
:1019400008953F924F925F926F927F928F929F92F3
:10195000AF92BF92CF92DF92EF92FF920F931F93BD
:10196000DF93CF93CDB7DEB761970FB6F894DEBFA4
:101970000FBECDBF182FDE011496E0EEF1E087E038
:1019800001900D928150E1F7DE011196E7EEF1E052
:1019900083E001900D928150E1F7DE011B96EAEEA3
:1019A000F1E087E001900D928150E1F7CC24DD2435
:1019B000A12EBB2492E0392E84E0482E512C4C0EEF
:1019C0005D1EFF24F3943E010894611C711C0BE022
:1019D000802E912C8C0E9D1E27C03092670283E0D2
:1019E00067E042E0920107E0EE240E94480CF0928A
:1019F000670283E060E041E1930103E00E94480C4C
:101A000083E064E141E1940107E00E94480C812FEA
:101A10008C0D60E040E420E200E00E946F090E942B
:101A2000CB0B0894C11CD11CC6018A0D9B1D8034B0
:101A300091059CF261960FB6F894DEBF0FBECDBF44
:101A4000CF91DF911F910F91FF90EF90DF90CF909A
:101A5000BF90AF909F908F907F906F905F904F90CE
:101A60003F9008955F926F927F928F929F92AF9274
:101A7000BF92CF92DF92EF92FF920F931F93DF936B
:101A8000CF93CDB7DEB763970FB6F894DEBF0FBE26
:101A9000CDBF182FDE011196E1EFF1E089E0019052
:101AA0000D928150E1F7DE011A96EAEFF1E08AE04B
:101AB00001900D928150E1F7CC24DD24A12EBB24AE
:101AC00032E0532E3E010894611C711CFF24F394F4
:101AD0002AE0822E912C8C0E9D1E20C0509267020F
:101AE00083E060E042E0930109E0EE240E94480CAC
:101AF000F092670283E060E041E194010AE00E9415
:101B0000480C812F8C0D60E040E420E200E00E9450
:101B10006F090E94CB0B0894C11CD11CC6018A0D11
:101B20009B1D80349105D4F263960FB6F894DEBF06
:101B30000FBECDBFCF91DF911F910F91FF90EF901E
:101B4000DF90CF90BF90AF909F908F907F906F90DD
:101B50005F9008956F927F928F929F92AF92BF9203
:101B6000CF92DF92EF920F931F93DF93CF93CDB776
:101B7000DEB72B970FB6F894DEBF0FBECDBF182F80
:101B8000DE011596E4E0F2E087E001900D928150CD
:101B9000E1F780910B0290910C02A0910D02B0919F
:101BA0000E0289839A83AB83BC83CC24DD24A12ECF
:101BB000BB2445E0642E712C6C0E7D1E4E010894F2
:101BC000811C911C1CC081E063E042E0930107E0AE
:101BD000EE240E94480C81E061E141E1940104E0BF
:101BE0000E94480C812F8C0D60E040E420E200E070
:101BF0000E946F090E94CB0B0894C11CD11CC60126
:101C00008A0D9B1D80349105F4F22B960FB6F89443
:101C1000DEBF0FBECDBFCF91DF911F910F91EF902F
:101C2000DF90CF90BF90AF909F908F907F906F90FC
:101C300008954F925F926F927F928F929F92AF9290
:101C4000BF92CF92DF92EF920F931F93DF93CF93C8
:101C5000CDB7DEB72E970FB6F894DEBF0FBECDBF5F
:101C6000182FDE011996EFE0F2E086E001900D9268
:101C70008150E1F78091150290911602A091170210
:101C8000B091180289839A83AB83BC838091190237
:101C900090911A02A0911B02B0911C028D839E8329
:101CA000AF83B887CC24DD24A12EBB2469E0462E67
:101CB000512C4C0E5D1E3E010894611C711C55E0B8
:101CC000852E912C8C0E9D1E2EC081E065E042E099
:101CD000920106E0EE240E94480C8AE390E06DE059
:101CE00070E041E00E94F70A81E08093550260E0D5
:101CF00041E1930104E00E94480C82E08093550288
:101D000081E063E241E194010E94480C812F8C0D37
:101D100060E040E420E200E00E946F090E94CB0BEB
:101D20000894C11CD11CC6018A0D9B1D80349105ED
:101D300064F22E960FB6F894DEBF0FBECDBFCF91E2
:101D4000DF911F910F91EF90DF90CF90BF90AF90F8
:101D50009F908F907F906F905F904F900895EF923B
:101D60000F931F93823299F480E092E0E6E7F2E06D
:101D7000DF019C011D9221503040E1F780E10E947B
:101D80009C13809376048531E0F08AE018C08B3391
:101D900039F480E1609176040E94C21310E012C011
:101DA000803231F480917604833158F48F5F07C01C
:101DB000813239F480917604823018F0815080931A
:101DC000760411E00091760480E00A3008F481E0A6
:101DD0000E94250B80E06BE042E020E30E94EC09CA
:101DE0000A3038F0802F6AE00E94FF19292F205D09
:101DF00002C02AE3201B80E06CE142E00E94EC0973
:101E000081E06DE241E12DE132E001E0EE240E944B
:101E1000480C86E390E06CE170E041E00E94CA0A61
:101E20000E94CB0B812F1F910F91EF9008951F936C
:101E3000682F8033C1F48FEF80930A0780930907DE
:101E400080930807809307071092060710920507F2
:101E500080E092E0E6E7F2E0DF019C011D92215074
:101E60003040E1F752C08A3008F04FC0809105073A
:101E700090910607009741F4633008F046C06093E4
:101E8000070781E090E017C08130910559F48091F7
:101E90000707823011F46430C0F56093080782E0D0
:101EA00090E009C08230910559F4663070F5609376
:101EB000090783E090E0909306078093050725C00B
:101EC00083309105F1F460930A0784E090E09093E9
:101ED000060780930507209107079AE0299F900144
:101EE000112480910807820F80930707209109072A
:101EF000299F90011124620F609309070E94D51158
:101F000002C0049714F010E001C011E081E00E94CB
:101F1000820B209107072F3F39F481E090E06AE1BE
:101F200070E00E94A10B06C0205D80E060E042E00E
:101F30000E94EC09209108072F3F39F481E190E0DD
:101F40006AE170E00E94A10B06C0205D80E060E1C4
:101F500042E00E94EC09209109072F3F39F481E209
:101F600090E06AE170E00E94A10B06C0205D80E075
:101F700062E242E00E94EC0920910A072F3F39F407
:101F800083E390E06AE170E00E94A10B06C0205D4F
:101F900080E062E342E00E94EC090E94CB0B812FBB
:101FA0001F9108952F923F924F925F926F927F926E
:101FB0008F929F92AF92BF92CF92DF92EF92FF9259
:101FC0000F931F93DF93CF93CDB7DEB72A970FB64A
:101FD000F894DEBF0FBECDBF882EDE011596E2E479
:101FE000F2E086E001900D928150E1F786E089836E
:101FF0008FE192E00E942417CE01019661E070E02B
:102000000E9431171C821B821A828E010B5F1F4FA8
:102010006801BBE02B2E312C2C0E3D1E282D30E00C
:10202000C901A3E0880F991FAA95E1F7820F931FBA
:10203000885B9D4FF5E06F2E712C680E791EE4E0F1
:10204000AE2EB12CA80EB91E73E0472E512C4C0EAB
:102050005D1E32C0D6018C91882311F4E0E00DC0E2
:1020600090E0C0979C01220F331F280F391FD30126
:10207000ED91FC91E20FF31FE081D5018C91480FA7
:10208000511D4E0F511D5C834B8389E292E00E94EB
:102090002417C20162E070E00E9431178B819C819D
:1020A0008F34910534F08A81882319F48C2D801B9C
:1020B0008A830894C11CD11C4B815C81C214D30457
:1020C00049F6405C5F4F5C834B8389E292E00E945B
:1020D0002417CE01039662E070E00E94311786E378
:1020E00092E00E942417CE01029661E070E00E9407
:1020F00031172D812223D1F0882D90E0FC0153E08F
:10210000EE0FFF1F5A95E1F7E80FF91FE85BFD4F4F
:10211000822F90E0C0979C01220F331F280F391F98
:102120000580F681E02DE20FF31F2081882D90E0DD
:10213000FC0103E0EE0FFF1F0A95E1F7E80FF91F1E
:10214000E85BFD4F9480920E66247724AA24BB247A
:1021500010E4C12ED12CB4E02B2E312C2E0E3F1EBC
:10216000A5E04A2E512C4E0E5F1E59C0D7FE3BC033
:10217000B601882777FD8095982F0E94AC177B01C8
:102180008C01E89417F9692D70E0882777FD809518
:10219000982F0E94AC179B01AC01C801B7010E94A7
:1021A0007C17882304F10894A11CB11CE5E0F0E041
:1021B000EC0FFD1FEA0DFB1D8081882311F4E0E088
:1021C0000DC090E0C0979C01220F331F280F391FCC
:1021D000D201ED91FC91E20FF31FE081D1019C90BF
:1021E0009E0ECC24DD2425E030E02C0F3D1F2A0D6F
:1021F0003B1D882D6C2D40E00A81EE24E3940E9463
:10220000480C88EC90E0E0E9F1E03197F1F70197B4
:10221000D1F70894C108D1080894611C711C8B8106
:102220009C81681679060CF4A1CF2A960FB6F89413
:10223000DEBF0FBECDBFCF91DF911F910F91FF90F9
:10224000EF90DF90CF90BF90AF909F908F907F9056
:102250006F905F904F903F902F900895399A389AE1
:10226000219A3A9A0E94E41686E08093B100E0E752
:10227000F0E080818160808380E092E0E6E7F2E038
:10228000DF019C011D9221503040E1F708954298F2
:10229000299A299880910B07813049F0813028F0E4
:1022A000823039F0833051F407C0409803C0409821
:1022B00004C0409A419802C0409A419A429A8F5F66
:1022C00080930B07843010F010920B0780910B075E
:1022D00090E00E94A51608951F920F920FB60F92DC
:1022E00011242F933F934F935F936F937F938F931B
:1022F0009F93AF93BF93EF93FF930E9447118091F9
:102300000C078F5F80930C078150833318F0A895DA
:1023100010920C0780E88093B200FF91EF91BF917B
:10232000AF919F918F917F916F915F914F913F916D
:102330002F910F900FBE0F901F90189580910E0750
:10234000089580910F070895809110070895482FF0
:102350006AE00E94FF19282F30E084E0220F331F2B
:102360008A95E1F7842F0E94FF19892F820F089523
:10237000282F22952F709AE0299F900111248F70A9
:10238000820F08950F931F93182F062F80ED60E0A2
:102390000E94E013812F0E942A14802F0E942A1489
:1023A0000E941A141F910F9108958831E0F46C3344
:1023B000D0F410920E0760930F078093100780E00F
:1023C00060E00E94C21180910F070E94A711682F40
:1023D00081E00E94C211809110070E94A711682F0E
:1023E00082E00E94C21108951F93182F80ED60E0D3
:1023F0000E94E013812F0E942A140E941A1480ED7B
:1024000061E00E94E0130E944414182F0E945614A9
:102410000E941A14812F1F91089580E00E94F411E8
:102420000E94B81180930E0781E00E94F4110E946F
:10243000B81180930F0782E00E94F411282F30E03A
:10244000482F4F7086FF12C020723070A5E035957E
:102450002795AA95E1F7C901880F991F820F931F4D
:10246000880F991F880F991F480F13C0C9018073E7
:10247000907074E0959587957A95E1F79C0163E0FB
:10248000220F331F6A95E1F7880F991F280F391F14
:10249000420F409310070895DF93CF9300D0CDB73C
:1024A000DEB780911007833009F053C080910F0789
:1024B000813009F04EC080E00E94F4110E94B811F2
:1024C0008A8385EB95E00E942417CE01029661E095
:1024D00070E00E9431178A8180518D31E0F585ECE2
:1024E00095E00E9424178DE097E061E070E00E9483
:1024F000311780910D07882371F580E10E949C13AC
:1025000089838EEC95E00E942417CE01019661E04C
:1025100070E00E9431179981892F82508231A8F48E
:102520008A81980F9A509A838A810E94A711682FF6
:1025300080E00E94C21188ED95E00E942417CE0130
:10254000029661E070E00E94311781E080930D07F0
:1025500002C010920D070F900F90CF91DF91089558
:102560001F93182F80E00E94F411682F112311F09F
:102570006F7701C0606880E00E94C2111F910895CA
:1025800060E573EC80E090E00E94C61381E00E9459
:10259000B01208958091130708958091140708954B
:1025A0008091150708951F93182F0E946814812F9A
:1025B0000E94C2141F9108951092110781E00E9499
:1025C000D3128823A1F086E197E061E00E94131501
:1025D00086E197E068E070E00E944015882339F4B6
:1025E00081E0809311078091160780931207089568
:1025F000CF93DF9380911107813009F067C00E946B
:10260000C2148CEC61E00E94E21484E461E00E9458
:10261000E21480E197E220E931E0F9013197F1F726
:102620000197D9F781E00E94C2148CEC61E00E940E
:10263000E2148EEB61E00E94E214C6E1D7E081E093
:102640000E94FA14899387E0CF31D807C1F7CE01F1
:10265000099769E070E00E9440158823C9F59091C0
:102660001707892F807880931507882341F0809180
:102670001607809580931607909590931707809181
:102680001207803149F490911607892F869580931F
:10269000130790FF15C016C0883211F08232B1F4D2
:1026A00080911607209117072295207F382F3295A9
:1026B0003F70232B2093130790E0019683FD02C007
:1026C00080E001C085E08093140702C00E94DC1204
:1026D000DF91CF910895EF92FF920F931F938C019A
:1026E0000E948B1AE82EC80180589F4F0E948B1AB7
:1026F000F82EC80180509F4F0E948B1A9F2D9695EF
:10270000F0FE03C0292F206801C0292F982F96952D
:1027100080FD9068892F869590FF03C0982F906860
:1027200001C0982F892F822B8E219223892B1F91F4
:102730000F91FF90EF90089590E00E946B13089521
:102740001F93CF93DF93EC01162F0E94931A612FF2
:10275000660F17FF03C0162F116001C0162FCE01A0
:1027600080589F4F612F0E94931A612F660F17FDAB
:102770006160CE0180509F4F0E94931ADF91CF91EC
:102780001F91089590E00E94A01308959B01AC0151
:1027900060E074E284EF90E00E941E1A2051304005
:1027A0004040504056954795379527952093B8005F
:1027B0008091B80090E08B3008F091E0892F089567
:1027C000982F84EA8093BC0028EE33E005C02115E1
:1027D000310531F0215030408091BC0087FFF7CFA8
:1027E0008091B900887F883021F0803111F090E02D
:1027F0001FC0690F6093BB0084E88093BC0028EE83
:1028000033E005C02115310531F021503040809171
:10281000BC0087FFF7CF8091B900887F883111F421
:1028200091E006C090E0803409F091E081E09827C3
:10283000892F089584E98093BC0028EE33E005C019
:102840002115310531F0215030408091BC0084FDCC
:10285000F7CF08958093BB0084E88093BC0028EEF6
:1028600033E005C02115310531F021503040809111
:10287000BC0087FFF7CF8091B90090E0887F883255
:1028800009F091E0892F089584EC8093BC0028EE34
:1028900033E005C02115310531F0215030408091E1
:1028A000BC0087FFF7CF8091BB00089584E8809338
:1028B000BC0028EE33E005C02115310531F0215070
:1028C00030408091BC0087FFF7CF8091BB00089516
:1028D00024B1982F9095922394B995B1982B95B9DE
:1028E00080E897E00197F1F70895F89494B1982B58
:1028F00094B995B1282F2095922395B990E29A9595
:10290000F1F794B1292324B995B1982B95B980E0BA
:1029100091E00197F1F778940895F89494B1982B89
:1029200094B995B1282F2095922395B9E0EFF0E066
:102930003197F1F794B1292324B995B1982B95B922
:1029400085E38A95F1F778940895F89494B1982BDB
:1029500094B995B1282F2095922395B990E29A9534
:10296000F1F794B1292324B995B1982B95B990E347
:102970009A95F1F793B1ECEDF0E03197F1F7789497
:1029800089230895F89494B1982B94B995B1282F80
:102990002095922395B9E0E8F7E03197F1F794B1EB
:1029A000292324B995B1982B95B9E8ECF0E031973B
:1029B000F1F793B1E8EBF6E03197F1F77894909561
:1029C00089230895FF920F931F93082FF62E10E08E
:1029D00000FF04C08F2D0E94751403C08F2D0E942C
:1029E0008D141F5F183011F00695F2CF1F910F91D3
:1029F000FF900895FF920F931F93F82E10E000E0D0
:102A000016958F2D0E94A514811110680F5F083054
:102A1000B9F7812F1F910F91FF900895682F8CECCB
:102A20000E94E21408950F931F93CF93DF93EC015C
:102A3000062F83E30E94E21418E0802F0E94FA140C
:102A400089931150D1F7DF91CF911F910F91089584
:102A50000F931F93CF93DF93EC01062F85E50E9420
:102A6000E21418E08991602F0E94E2141150D1F70E
:102A7000DF91CF911F910F91089580911F070895C5
:102A80001F93FC0140E050E090E018E117C0A081E6
:102A900020E030E08A2F8927B82FB17080FD912780
:102AA0009695B13009F490682F5F3F4F283031057B
:102AB00011F0A695EFCF31964F5F5F4F461757073E
:102AC00034F3892F1F9108951F920F920FB60F9222
:102AD00011242F933F934F938F939F93209124071B
:102AE0003091250788EF86BD49B1809123078F5F1C
:102AF00080932307823150F036FD06C035FF04C0B5
:102B0000309322072093210720E030E090912607A0
:102B1000492747FF15C0909590932607863018F4F3
:102B200020E030E005C02115310511F08C3040F077
:102B300036FD02C0220F331F97FF2160109223073A
:102B400030932507209324079F918F914F913F91B8
:102B50002F910F900FBE0F901F90189557985F9A66
:102B600084E085BDEEE6F0E0808181608083089599
:102B7000FC01F8948091210790912207109222077E
:102B8000109221077894009711F480E008958F73D4
:102B9000808381E0089508953B9A282F2095F8942A
:102BA0009AE087E8089410F4439802C0439A000022
:102BB0000E94E0150E94E01526959A95A1F704C0A1
:102BC000182E1A94F1F70895439A789480ED97E0BF
:102BD0000197F1F70895CF93DF93EC0103C021969D
:102BE0000E94CC1588818823D1F7DF91CF91089579
:102BF000CF92DF92FF920F931F93DF93CF9300D07A
:102C000000D000D0CDB7DEB78C01F62EDE011196D4
:102C1000EFEEF5E086E001900D928150E1F71BC0E8
:102C2000F8018081382F32953F708F703A3010F460
:102C300020E301C027E58A3010F490E301C097E556
:102C40000F5F1F4F230F2B83980F9C83C6010E9499
:102C5000EB15FA9404C06E010894C11CD11CFF202E
:102C6000F9F68BEE95E00E94EB1526960FB6F894D8
:102C7000DEBF0FBECDBFCF91DF911F910F91FF90AF
:102C8000DF90CF9008951F920F920FB60F921124EC
:102C90002F933F938F939F93EF93FF9380912707F9
:102CA000803109F447C080912A07845080932A0715
:102CB000E0912907809127079091280730912A07F2
:102CC00020912B07F0E0EE0FFF1FE80FF11D83E0CE
:102CD000EE0FFF1F8A95E1F7E90FF11D84E0EE0F7B
:102CE000FF1F8A95E1F7E459FD4FE20FF11DE30F55
:102CF000F11D828580958EBD80912A078823D1F4AD
:102D000080E180932A07809128078F5F80932807AE
:102D100080912807883070F010922807809127074B
:102D2000882319F481E18093270780912707815038
:102D300080932707FF91EF919F918F913F912F9162
:102D40000F900FBE0F901F90189580932B078CE06B
:102D500080932A071092280781E08093270720E0BC
:102D60008091740290917502892B09F421E02093DF
:102D70002907E09129078091270790912807309132
:102D80002A0720912B07F0E0EE0FFF1FE80FF11D3F
:102D900043E0EE0FFF1F4A95E1F7E90FF11D84E0D4
:102DA000EE0FFF1F8A95E1F7E459FD4FE20FF11D89
:102DB000E30FF11D828580958EBD08958EBD0DB403
:102DC00007FEFDCF8EB5089584B18C6384B98CB5B0
:102DD000806F8CBD8CB58C7F8CBD8DB581608DBDB9
:102DE0000895982F8091C00085FFFCCF9093C60076
:102DF00008958091C00087FFFCCF9091C60080911C
:102E0000C00085FFFCCF9093C600892F08958823CA
:102E100021F08091C100806803C08091C1008F774C
:102E20008093C10008955098519A88E18093C10021
:102E300086E08093C20082E08093C0001092C500BB
:102E400082E28093C4000895FC0107C08091C00015
:102E500085FFFCCF31969093C60090819923B1F7FE
:102E60000895CF92DF92FF920F931F93DF93CF933A
:102E700000D000D000D0CDB7DEB78C01F62EDE0139
:102E80001196E9EFF5E086E001900D928150E1F7AF
:102E90001BC0F8018081382F32953F708F703A3017
:102EA00010F420E301C027E58A3010F490E301C05C
:102EB00097E50F5F1F4F230F2B83980F9C83C6014D
:102EC0000E942417FA9404C06E010894C11CD11CFE
:102ED000FF20F9F685EF95E00E94241726960FB69D
:102EE000F894DEBF0FBECDBFCF91DF911F910F9140
:102EF000FF90DF90CF900895A8E1B0E0E2E8F7E11D
:102F00000C94601A69837A838B839C832D833E8320
:102F10004F83588789E0E82EF12CEC0EFD1ECE0180
:102F20000196B7010E942E198E010F5E1F4FCE0130
:102F30000596B8010E942E198985823040F0898952
:102F4000823028F0C701B8010E94A61901C08FEF96
:102F50006896E6E00C947C1AA8E0B0E0E2EBF7E1BA
:102F60000C945D1A9B01AC0183E08983DA01C901ED
:102F70008827B7FD83959927AA27BB27B82E211547
:102F800031054105510519F482E089833AC088234F
:102F9000A9F0203080E0380780E0480780E8580733
:102FA00029F460E070E080E09FEC30C0EE24FF2464
:102FB0008701E21AF30A040B150B02C079018A019A
:102FC0008EE1C82ED12CDC82CB82ED82FE820F8373
:102FD0001887C801B7010E940A1801971816190628
:102FE00084F4082E04C0EE0CFF1C001F111F0A946D
:102FF000D2F7ED82FE820F831887C81AD90ADC82C5
:10300000CB82BA82CE0101960E9459182896E9E037
:103010000C94791AEF92FF920F931F937B018C010E
:1030200080E0E81680E0F80681E0080780E01807F5
:1030300088F48FEFE816F1040105110531F028F04E
:1030400088E090E0A0E0B0E017C080E090E0A0E071
:10305000B0E012C080E0E81680E0F80680E00807E3
:1030600081E0180728F088E190E0A0E0B0E004C01B
:1030700080E190E0A0E0B0E020E230E040E050E00D
:10308000281B390B4A0B5B0B04C016950795F79468
:10309000E7948A95D2F7F701E150FA4F8081281B17
:1030A000310941095109C9011F910F91FF90EF901A
:1030B0000895DF92EF92FF920F931F93FC01E4803B
:1030C000F58006811781D1808081823048F480E0CC
:1030D00090E0A0E1B0E0E82AF92A0A2B1B2BA5C05A
:1030E000843009F49FC0823021F4EE24FF2487014C
:1030F00005C0E114F1040105110519F4E0E0F0E068
:1031000096C0628173819FEF623879070CF05BC0D3
:1031100022E83FEF261B370B2A3131052CF020E047
:1031200030E040E050E02AC0B801A701022E04C000
:1031300076956795579547950A94D2F781E090E088
:10314000A0E0B0E004C0880F991FAA1FBB1F2A95FA
:10315000D2F70197A109B1098E219F21A023B123A4
:103160000097A105B10521F081E090E0A0E0B0E07A
:103170009A01AB01282B392B4A2B5B2BDA01C901B1
:103180008F779070A070B07080349105A105B10563
:1031900039F427FF09C0205C3F4F4F4F5F4F04C0F9
:1031A000215C3F4F4F4F5F4FE0E0F0E02030A0E068
:1031B0003A07A0E04A07A0E45A0710F0E1E0F0E087
:1031C00079018A0127C06038710564F5FB01E15877
:1031D000FF4FD801C7018F779070A070B070803416
:1031E0009105A105B10539F4E7FE0DC080E490E03A
:1031F000A0E0B0E004C08FE390E0A0E0B0E0E80E13
:10320000F91E0A1F1B1F17FF05C016950795F79497
:10321000E794319687E016950795F794E7948A9599
:10322000D1F705C0EE24FF248701EFEFF0E06E2F09
:10323000679566276795902F9F77D794DD24D7945D
:103240008E2F8695492F462B582F5D29B701CA012D
:103250001F910F91FF90EF90DF900895FC01DB012B
:10326000408151812281622F6F7770E0221F2227D7
:10327000221F9381892F880F822B282F30E0991FDE
:103280009927991F11969C93119721153105A9F53E
:10329000411551056105710511F482E037C082E8DE
:1032A0009FEF13969C938E9312979A01AB0167E060
:1032B000220F331F441F551F6A95D1F783E08C936B
:1032C0000DC0220F331F441F551F12968D919C91E4
:1032D0001397019713969C938E931297203080E05A
:1032E000380780E0480780E4580758F314962D9378
:1032F0003D934D935C93179708952F3F310579F4D3
:10330000411551056105710519F484E08C93089508
:1033100064FF03C081E08C9312C01C9210C02F5731
:10332000304013963C932E93129783E08C9387E062
:10333000440F551F661F771F8A95D1F77064149646
:103340004D935D936D937C93179708951F93DC01C4
:10335000FB019C91923008F447C08081823008F4D0
:1033600043C0943051F411961C91843099F58181B9
:10337000682F70E0611B71093FC0843021F09230EA
:1033800031F48230B9F18181882389F12DC0119601
:103390001C9111978230F1F081811817D9F412969F
:1033A0002D913C911397828193818217930794F01A
:1033B00028173907BCF014968D919D910D90BC9102
:1033C000A02D2481358146815781281739074A0766
:1033D0005B0718F4112341F00AC082179307A40772
:1033E000B50740F4112319F061E070E005C06FEFFC
:1033F0007FEF02C060E070E0CB011F910895991B40
:1034000079E004C0991F961708F0961B881F7A95DB
:10341000C9F78095089597FB092E07260AD077FDF6
:1034200004D02ED006D000201AF4709561957F4FFD
:103430000895F6F7909581959F4F0895A1E21A2E71
:10344000AA1BBB1BFD010DC0AA1FBB1FEE1FFF1F48
:10345000A217B307E407F50720F0A21BB30BE40B98
:10346000F50B661F771F881F991F1A9469F76095DF
:103470007095809590959B01AC01BD01CF01089599
:10348000AA1BBB1B51E107C0AA1FBB1FA617B7078A
:1034900010F0A61BB70B881F991F5A95A9F78095A6
:1034A0009095BC01CD0108952F923F924F925F926B
:1034B0006F927F928F929F92AF92BF92CF92DF9244
:1034C000EF92FF920F931F93CF93DF93CDB7DEB7A9
:1034D000CA1BDB0B0FB6F894DEBF0FBECDBF09943D
:1034E0002A88398848885F846E847D848C849B8494
:1034F000AA84B984C884DF80EE80FD800C811B81A2
:10350000AA81B981CE0FD11D0FB6F894DEBF0FBED0
:10351000CDBFED010895F999FECF92BD81BDF89A16
:10352000992780B50895262FF999FECF1FBA92BD2D
:1035300081BD20BD0FB6F894FA9AF99A0FBE019694
:063540000895F894FFCF8E
:103546000A0D2054657874205570646174652000F6
:103556000A0D20436C6F636B20557064617465209F
:10356600000A0D20526561642054656D7020000AC2
:103576000D20475320436C6F636B2076332E303219
:103586002000010D00000B22000B44000B66000E0C
:1035960088000BAA000CCC000CEE000C10010D32BA
:1035A600010454010661010A73010B91010A9F018E
:1035B60009BD010FE3010DE7010C09020C2B020AFC
:1035C6004D020F6F020A990210BB020CDD020CFFBE
:1035D600020C21030C4D030D6F030E91030CB30374
:1035E6000DD5030CF7030C19040C3B040D5D040CFC
:1035F6007F040FA1040FC3040DE5040D0F050D3163
:10360600050E53050E7D050D9F050CC1050DE30541
:103616000E05060C27060C3306C7C0C3D0D3C70059
:10362600D7C0D1CEC2C000CDC500CFD0C0D6D3C57D
:1036360000D2DDD5CD31D7CDDB00CFC5D0C0CFDBB5
:10364600CDC0CA00C231D2C0C5CC00C2C0D100C1F3
:10365600CECBDCD800D7DBCC00C0C7D100D1000A66
:103666000D2073697A652020000A0D207374727329
:10367600697A652020000A0D207374726C656E20CD
:10368600200031323334350002363039027704B146
:1036960006021C3039023405250B02283039024354
:1036A6000168000228303901B604030940002000F1
:1036B60008000200000000000000000000000000FA
:1036C60000000000000000000000000000000000F4
:1036D60000000000000000000000000000000000E4
:1036E60000000000000000000000000000000000D4
:1036F60000000000000000000000000000000000C4
:1037060000000000000000000000000000000000B3
:1037160000000000000000000000000000000000A3
:103726000000000000000000000000000000000093
:103736000000000000000000000000000000000083
:103746000000000000000000000000000000000073
:103756000000000000000000000000000000000063
:103766000000000000000000000000000000000053
:103776000000000000000000000000000000000043
:103786000000000000000000000000000000000033
:103796000000000000000000000000000000000023
:1037A6000000000000000000000000000000000013
:1037B6000000000000000000000000000000000003
:1037C60000000000000000000000000000000000F3
:1037D60000000000000000000000000000000000E3
:1037E60000000000000000000000000000000000D3
:1037F60000000000000000000000000000000000C3
:1038060000000000000000000000000000000000B2
:1038160000000000000000000000000000000000A2
:103826000000000000000000000000000000000092
:103836000000000000000000000000000000000082
:103846000000000000000000000000000000000072
:103856000000000000000000000000000000000062
:103866000000000000000000000000000000000052
:103876000000000000000000000000000000000042
:103886000000000000000000000000000000000032
:103896000000000000000000000000000000000022
:1038A6000000000000000000000000000000000012
:1038B6000000000000000A0E00000E36000E6C002C
:1038C6000EA2000ED8000E0E010E44010E7A010E55
:1038D600B0010EE601001C0200000000000000001E
:1038E60000000000000000000000000000000000D2
:1038F6000E1C020E5202050000050B0005160005FF
:103906002100062C00053700054200054D0005582C
:1039160000056300086E00067900058400048F0028
:10392600099A0005B6000CC10005D70007E200079A
:10393600ED0008FB00070601091101052701073202
:1039460001053D01054801065301075E01076901AE
:10395600087401077F01088A010698010AA3010B72
:10396600B90108D50107E00106EB0106F6010B01D6
:1039760002061702070000060D00071A00062700B8
:10398600083400064100074E00075B00076800097F
:1039960075000A8F0007A90007B60006C3000AD003
:1039A6000006F0000EFD00061701092401093E017C
:1039B6000A5E010978010C920108AC0109B90108F7
:1039C600D30107E00108ED0108FA010907020A21FF
:1039D60002093B020955020775020B82020D9C0281
:1039E6000ABC020AD60207F00208FD020D0A030805
:1039F60024030832030A0D2054696D652061646A48
:103A060075737420000A0D20466C616720000A0D4C
:103A160020526561642020000A0D2054696D6520DE
:103A260061646A757374206E657700200A0D003034
:103A36007871712000200A0D003078717120000025
:103A4600010202030303030404040404040404053A
:103A5600050505050505050505050505050505060F
:103A660006060606060606060606060606060606F0
:103A760006060606060606060606060606060607DF
:103A860007070707070707070707070707070707C0
:103A960007070707070707070707070707070707B0
:103AA60007070707070707070707070707070707A0
:103AB600070707070707070707070707070707088F
:103AC6000808080808080808080808080808080870
:103AD6000808080808080808080808080808080860
:103AE6000808080808080808080808080808080850
:103AF6000808080808080808080808080808080840
:103B0600080808080808080808080808080808082F
:103B1600080808080808080808080808080808081F
:103B2600080808080808080808080808080808080F
:103B36000808080808080808080808080808080007
:00000001FF
